{
	"contracts/fundme.sol": {
		"FundMe": {
			"abi": [
				{
					"inputs": [],
					"name": "fund",
					"outputs": [],
					"stateMutability": "payable",
					"type": "function"
				},
				{
					"inputs": [],
					"name": "minimumUsd",
					"outputs": [
						{
							"internalType": "uint256",
							"name": "",
							"type": "uint256"
						}
					],
					"stateMutability": "view",
					"type": "function"
				}
			],
			"devdoc": {
				"kind": "dev",
				"methods": {},
				"version": 1
			},
			"evm": {
				"assembly": "    /* \"contracts/fundme.sol\":94:458  contract FundMe{... */\n  mstore(0x40, 0x80)\n    /* \"contracts/fundme.sol\":185:194  50 * 1e18 */\n  0x02b5e3af16b1880000\n    /* \"contracts/fundme.sol\":157:194  uint256 public minimumUsd = 50 * 1e18 */\n  0x00\n  sstore\n    /* \"contracts/fundme.sol\":94:458  contract FundMe{... */\n  callvalue\n  dup1\n  iszero\n  tag_1\n  jumpi\n  0x00\n  dup1\n  revert\ntag_1:\n  pop\n  dataSize(sub_0)\n  dup1\n  dataOffset(sub_0)\n  0x00\n  codecopy\n  0x00\n  return\nstop\n\nsub_0: assembly {\n        /* \"contracts/fundme.sol\":94:458  contract FundMe{... */\n      mstore(0x40, 0x80)\n      jumpi(tag_1, lt(calldatasize, 0x04))\n      shr(0xe0, calldataload(0x00))\n      dup1\n      0x098de820\n      eq\n      tag_2\n      jumpi\n      dup1\n      0xb60d4288\n      eq\n      tag_3\n      jumpi\n    tag_1:\n      0x00\n      dup1\n      revert\n        /* \"contracts/fundme.sol\":157:194  uint256 public minimumUsd = 50 * 1e18 */\n    tag_2:\n      callvalue\n      dup1\n      iszero\n      tag_4\n      jumpi\n      0x00\n      dup1\n      revert\n    tag_4:\n      pop\n      tag_5\n      tag_6\n      jump\t// in\n    tag_5:\n      mload(0x40)\n      tag_7\n      swap2\n      swap1\n      tag_8\n      jump\t// in\n    tag_7:\n      mload(0x40)\n      dup1\n      swap2\n      sub\n      swap1\n      return\n        /* \"contracts/fundme.sol\":222:443  function fund() public payable{... */\n    tag_3:\n      tag_9\n      tag_10\n      jump\t// in\n    tag_9:\n      stop\n        /* \"contracts/fundme.sol\":157:194  uint256 public minimumUsd = 50 * 1e18 */\n    tag_6:\n      sload(0x00)\n      dup2\n      jump\t// out\n        /* \"contracts/fundme.sol\":222:443  function fund() public payable{... */\n    tag_10:\n        /* \"contracts/fundme.sol\":332:361  msg.value.getConversionRate() */\n      tag_12\n        /* \"contracts/fundme.sol\":332:341  msg.value */\n      callvalue\n        /* \"contracts/fundme.sol\":332:359  msg.value.getConversionRate */\n      tag_13\n        /* \"contracts/fundme.sol\":332:361  msg.value.getConversionRate() */\n      jump\t// in\n    tag_12:\n      pop\n        /* \"contracts/fundme.sol\":222:443  function fund() public payable{... */\n      jump\t// out\n        /* \"contracts/PriceConverter.sol\":745:966  function getConversionRate(uint256 ethAmount) internal view returns(uint256){... */\n    tag_13:\n        /* \"contracts/PriceConverter.sol\":813:820  uint256 */\n      0x00\n        /* \"contracts/PriceConverter.sol\":832:848  uint256 ethPrice */\n      dup1\n        /* \"contracts/PriceConverter.sol\":851:861  getPrice() */\n      tag_15\n        /* \"contracts/PriceConverter.sol\":851:859  getPrice */\n      tag_16\n        /* \"contracts/PriceConverter.sol\":851:861  getPrice() */\n      jump\t// in\n    tag_15:\n        /* \"contracts/PriceConverter.sol\":832:861  uint256 ethPrice = getPrice() */\n      swap1\n      pop\n        /* \"contracts/PriceConverter.sol\":872:894  uint256 ethAmountInUsd */\n      0x00\n        /* \"contracts/PriceConverter.sol\":922:926  1e18 */\n      0x0de0b6b3a7640000\n        /* \"contracts/PriceConverter.sol\":909:918  ethAmount */\n      dup5\n        /* \"contracts/PriceConverter.sol\":898:906  ethPrice */\n      dup4\n        /* \"contracts/PriceConverter.sol\":898:918  ethPrice * ethAmount */\n      tag_17\n      swap2\n      swap1\n      tag_18\n      jump\t// in\n    tag_17:\n        /* \"contracts/PriceConverter.sol\":897:926  (ethPrice * ethAmount) / 1e18 */\n      tag_19\n      swap2\n      swap1\n      tag_20\n      jump\t// in\n    tag_19:\n        /* \"contracts/PriceConverter.sol\":872:926  uint256 ethAmountInUsd = (ethPrice * ethAmount) / 1e18 */\n      swap1\n      pop\n        /* \"contracts/PriceConverter.sol\":944:958  ethAmountInUsd */\n      dup1\n        /* \"contracts/PriceConverter.sol\":937:958  return ethAmountInUsd */\n      swap3\n      pop\n      pop\n      pop\n        /* \"contracts/PriceConverter.sol\":745:966  function getConversionRate(uint256 ethAmount) internal view returns(uint256){... */\n      swap2\n      swap1\n      pop\n      jump\t// out\n        /* \"contracts/PriceConverter.sol\":191:575  function getPrice() internal view returns(uint256) {... */\n    tag_16:\n        /* \"contracts/PriceConverter.sol\":233:240  uint256 */\n      0x00\n        /* \"contracts/PriceConverter.sol\":323:354  AggregatorV3Interface priceFeed */\n      dup1\n        /* \"contracts/PriceConverter.sol\":379:421  0x8A753747A1Fa494EC906cE90E9f37563A8AF630e */\n      0x8a753747a1fa494ec906ce90e9f37563a8af630e\n        /* \"contracts/PriceConverter.sol\":323:422  AggregatorV3Interface priceFeed = AggregatorV3Interface(0x8A753747A1Fa494EC906cE90E9f37563A8AF630e) */\n      swap1\n      pop\n        /* \"contracts/PriceConverter.sol\":435:447  int256 price */\n      0x00\n        /* \"contracts/PriceConverter.sol\":464:473  priceFeed */\n      dup2\n        /* \"contracts/PriceConverter.sol\":464:489  priceFeed.latestRoundData */\n      0xffffffffffffffffffffffffffffffffffffffff\n      and\n      0xfeaf968c\n        /* \"contracts/PriceConverter.sol\":464:491  priceFeed.latestRoundData() */\n      mload(0x40)\n      dup2\n      0xffffffff\n      and\n      0xe0\n      shl\n      dup2\n      mstore\n      0x04\n      add\n      0xa0\n      mload(0x40)\n      dup1\n      dup4\n      sub\n      dup2\n      dup7\n      dup1\n      extcodesize\n      iszero\n      dup1\n      iszero\n      tag_22\n      jumpi\n      0x00\n      dup1\n      revert\n    tag_22:\n      pop\n      gas\n      staticcall\n      iszero\n      dup1\n      iszero\n      tag_24\n      jumpi\n      returndatasize\n      0x00\n      dup1\n      returndatacopy\n      revert(0x00, returndatasize)\n    tag_24:\n      pop\n      pop\n      pop\n      pop\n      mload(0x40)\n      returndatasize\n      not(0x1f)\n      0x1f\n      dup3\n      add\n      and\n      dup3\n      add\n      dup1\n      0x40\n      mstore\n      pop\n      dup2\n      add\n      swap1\n      tag_25\n      swap2\n      swap1\n      tag_26\n      jump\t// in\n    tag_25:\n        /* \"contracts/PriceConverter.sol\":433:491  (,int256 price,,,) = ... */\n      pop\n      pop\n      pop\n      swap2\n      pop\n      pop\n        /* \"contracts/PriceConverter.sol\":562:566  1e10 */\n      0x02540be400\n        /* \"contracts/PriceConverter.sol\":554:559  price */\n      dup2\n        /* \"contracts/PriceConverter.sol\":554:566  price * 1e10 */\n      tag_27\n      swap2\n      swap1\n      tag_28\n      jump\t// in\n    tag_27:\n        /* \"contracts/PriceConverter.sol\":539:567  return uint256(price * 1e10) */\n      swap3\n      pop\n      pop\n      pop\n        /* \"contracts/PriceConverter.sol\":191:575  function getPrice() internal view returns(uint256) {... */\n      swap1\n      jump\t// out\n        /* \"#utility.yul\":7:84   */\n    tag_29:\n        /* \"#utility.yul\":44:51   */\n      0x00\n        /* \"#utility.yul\":73:78   */\n      dup2\n        /* \"#utility.yul\":62:78   */\n      swap1\n      pop\n        /* \"#utility.yul\":7:84   */\n      swap2\n      swap1\n      pop\n      jump\t// out\n        /* \"#utility.yul\":90:208   */\n    tag_30:\n        /* \"#utility.yul\":177:201   */\n      tag_47\n        /* \"#utility.yul\":195:200   */\n      dup2\n        /* \"#utility.yul\":177:201   */\n      tag_29\n      jump\t// in\n    tag_47:\n        /* \"#utility.yul\":172:175   */\n      dup3\n        /* \"#utility.yul\":165:202   */\n      mstore\n        /* \"#utility.yul\":90:208   */\n      pop\n      pop\n      jump\t// out\n        /* \"#utility.yul\":214:436   */\n    tag_8:\n        /* \"#utility.yul\":307:311   */\n      0x00\n        /* \"#utility.yul\":345:347   */\n      0x20\n        /* \"#utility.yul\":334:343   */\n      dup3\n        /* \"#utility.yul\":330:348   */\n      add\n        /* \"#utility.yul\":322:348   */\n      swap1\n      pop\n        /* \"#utility.yul\":358:429   */\n      tag_49\n        /* \"#utility.yul\":426:427   */\n      0x00\n        /* \"#utility.yul\":415:424   */\n      dup4\n        /* \"#utility.yul\":411:428   */\n      add\n        /* \"#utility.yul\":402:408   */\n      dup5\n        /* \"#utility.yul\":358:429   */\n      tag_30\n      jump\t// in\n    tag_49:\n        /* \"#utility.yul\":214:436   */\n      swap3\n      swap2\n      pop\n      pop\n      jump\t// out\n        /* \"#utility.yul\":442:622   */\n    tag_31:\n        /* \"#utility.yul\":490:567   */\n      0x4e487b7100000000000000000000000000000000000000000000000000000000\n        /* \"#utility.yul\":487:488   */\n      0x00\n        /* \"#utility.yul\":480:568   */\n      mstore\n        /* \"#utility.yul\":587:591   */\n      0x11\n        /* \"#utility.yul\":584:585   */\n      0x04\n        /* \"#utility.yul\":577:592   */\n      mstore\n        /* \"#utility.yul\":611:615   */\n      0x24\n        /* \"#utility.yul\":608:609   */\n      0x00\n        /* \"#utility.yul\":601:616   */\n      revert\n        /* \"#utility.yul\":628:976   */\n    tag_18:\n        /* \"#utility.yul\":668:675   */\n      0x00\n        /* \"#utility.yul\":691:711   */\n      tag_52\n        /* \"#utility.yul\":709:710   */\n      dup3\n        /* \"#utility.yul\":691:711   */\n      tag_29\n      jump\t// in\n    tag_52:\n        /* \"#utility.yul\":686:711   */\n      swap2\n      pop\n        /* \"#utility.yul\":725:745   */\n      tag_53\n        /* \"#utility.yul\":743:744   */\n      dup4\n        /* \"#utility.yul\":725:745   */\n      tag_29\n      jump\t// in\n    tag_53:\n        /* \"#utility.yul\":720:745   */\n      swap3\n      pop\n        /* \"#utility.yul\":913:914   */\n      dup2\n        /* \"#utility.yul\":845:911   */\n      0xffffffffffffffffffffffffffffffffffffffffffffffffffffffffffffffff\n        /* \"#utility.yul\":841:915   */\n      div\n        /* \"#utility.yul\":838:839   */\n      dup4\n        /* \"#utility.yul\":835:916   */\n      gt\n        /* \"#utility.yul\":830:831   */\n      dup3\n        /* \"#utility.yul\":823:832   */\n      iszero\n        /* \"#utility.yul\":816:833   */\n      iszero\n        /* \"#utility.yul\":812:917   */\n      and\n        /* \"#utility.yul\":809:940   */\n      iszero\n      tag_54\n      jumpi\n        /* \"#utility.yul\":920:938   */\n      tag_55\n      tag_31\n      jump\t// in\n    tag_55:\n        /* \"#utility.yul\":809:940   */\n    tag_54:\n        /* \"#utility.yul\":968:969   */\n      dup3\n        /* \"#utility.yul\":965:966   */\n      dup3\n        /* \"#utility.yul\":961:970   */\n      mul\n        /* \"#utility.yul\":950:970   */\n      swap1\n      pop\n        /* \"#utility.yul\":628:976   */\n      swap3\n      swap2\n      pop\n      pop\n      jump\t// out\n        /* \"#utility.yul\":982:1162   */\n    tag_32:\n        /* \"#utility.yul\":1030:1107   */\n      0x4e487b7100000000000000000000000000000000000000000000000000000000\n        /* \"#utility.yul\":1027:1028   */\n      0x00\n        /* \"#utility.yul\":1020:1108   */\n      mstore\n        /* \"#utility.yul\":1127:1131   */\n      0x12\n        /* \"#utility.yul\":1124:1125   */\n      0x04\n        /* \"#utility.yul\":1117:1132   */\n      mstore\n        /* \"#utility.yul\":1151:1155   */\n      0x24\n        /* \"#utility.yul\":1148:1149   */\n      0x00\n        /* \"#utility.yul\":1141:1156   */\n      revert\n        /* \"#utility.yul\":1168:1353   */\n    tag_20:\n        /* \"#utility.yul\":1208:1209   */\n      0x00\n        /* \"#utility.yul\":1225:1245   */\n      tag_58\n        /* \"#utility.yul\":1243:1244   */\n      dup3\n        /* \"#utility.yul\":1225:1245   */\n      tag_29\n      jump\t// in\n    tag_58:\n        /* \"#utility.yul\":1220:1245   */\n      swap2\n      pop\n        /* \"#utility.yul\":1259:1279   */\n      tag_59\n        /* \"#utility.yul\":1277:1278   */\n      dup4\n        /* \"#utility.yul\":1259:1279   */\n      tag_29\n      jump\t// in\n    tag_59:\n        /* \"#utility.yul\":1254:1279   */\n      swap3\n      pop\n        /* \"#utility.yul\":1298:1299   */\n      dup3\n        /* \"#utility.yul\":1288:1323   */\n      tag_60\n      jumpi\n        /* \"#utility.yul\":1303:1321   */\n      tag_61\n      tag_32\n      jump\t// in\n    tag_61:\n        /* \"#utility.yul\":1288:1323   */\n    tag_60:\n        /* \"#utility.yul\":1345:1346   */\n      dup3\n        /* \"#utility.yul\":1342:1343   */\n      dup3\n        /* \"#utility.yul\":1338:1347   */\n      div\n        /* \"#utility.yul\":1333:1347   */\n      swap1\n      pop\n        /* \"#utility.yul\":1168:1353   */\n      swap3\n      swap2\n      pop\n      pop\n      jump\t// out\n        /* \"#utility.yul\":1440:1557   */\n    tag_34:\n        /* \"#utility.yul\":1549:1550   */\n      0x00\n        /* \"#utility.yul\":1546:1547   */\n      dup1\n        /* \"#utility.yul\":1539:1551   */\n      revert\n        /* \"#utility.yul\":1686:1791   */\n    tag_36:\n        /* \"#utility.yul\":1722:1729   */\n      0x00\n        /* \"#utility.yul\":1762:1784   */\n      0xffffffffffffffffffff\n        /* \"#utility.yul\":1755:1760   */\n      dup3\n        /* \"#utility.yul\":1751:1785   */\n      and\n        /* \"#utility.yul\":1740:1785   */\n      swap1\n      pop\n        /* \"#utility.yul\":1686:1791   */\n      swap2\n      swap1\n      pop\n      jump\t// out\n        /* \"#utility.yul\":1797:1917   */\n    tag_37:\n        /* \"#utility.yul\":1869:1892   */\n      tag_67\n        /* \"#utility.yul\":1886:1891   */\n      dup2\n        /* \"#utility.yul\":1869:1892   */\n      tag_36\n      jump\t// in\n    tag_67:\n        /* \"#utility.yul\":1862:1867   */\n      dup2\n        /* \"#utility.yul\":1859:1893   */\n      eq\n        /* \"#utility.yul\":1849:1911   */\n      tag_68\n      jumpi\n        /* \"#utility.yul\":1907:1908   */\n      0x00\n        /* \"#utility.yul\":1904:1905   */\n      dup1\n        /* \"#utility.yul\":1897:1909   */\n      revert\n        /* \"#utility.yul\":1849:1911   */\n    tag_68:\n        /* \"#utility.yul\":1797:1917   */\n      pop\n      jump\t// out\n        /* \"#utility.yul\":1923:2064   */\n    tag_38:\n        /* \"#utility.yul\":1979:1984   */\n      0x00\n        /* \"#utility.yul\":2010:2016   */\n      dup2\n        /* \"#utility.yul\":2004:2017   */\n      mload\n        /* \"#utility.yul\":1995:2017   */\n      swap1\n      pop\n        /* \"#utility.yul\":2026:2058   */\n      tag_70\n        /* \"#utility.yul\":2052:2057   */\n      dup2\n        /* \"#utility.yul\":2026:2058   */\n      tag_37\n      jump\t// in\n    tag_70:\n        /* \"#utility.yul\":1923:2064   */\n      swap3\n      swap2\n      pop\n      pop\n      jump\t// out\n        /* \"#utility.yul\":2070:2146   */\n    tag_39:\n        /* \"#utility.yul\":2106:2113   */\n      0x00\n        /* \"#utility.yul\":2135:2140   */\n      dup2\n        /* \"#utility.yul\":2124:2140   */\n      swap1\n      pop\n        /* \"#utility.yul\":2070:2146   */\n      swap2\n      swap1\n      pop\n      jump\t// out\n        /* \"#utility.yul\":2152:2272   */\n    tag_40:\n        /* \"#utility.yul\":2224:2247   */\n      tag_73\n        /* \"#utility.yul\":2241:2246   */\n      dup2\n        /* \"#utility.yul\":2224:2247   */\n      tag_39\n      jump\t// in\n    tag_73:\n        /* \"#utility.yul\":2217:2222   */\n      dup2\n        /* \"#utility.yul\":2214:2248   */\n      eq\n        /* \"#utility.yul\":2204:2266   */\n      tag_74\n      jumpi\n        /* \"#utility.yul\":2262:2263   */\n      0x00\n        /* \"#utility.yul\":2259:2260   */\n      dup1\n        /* \"#utility.yul\":2252:2264   */\n      revert\n        /* \"#utility.yul\":2204:2266   */\n    tag_74:\n        /* \"#utility.yul\":2152:2272   */\n      pop\n      jump\t// out\n        /* \"#utility.yul\":2278:2419   */\n    tag_41:\n        /* \"#utility.yul\":2334:2339   */\n      0x00\n        /* \"#utility.yul\":2365:2371   */\n      dup2\n        /* \"#utility.yul\":2359:2372   */\n      mload\n        /* \"#utility.yul\":2350:2372   */\n      swap1\n      pop\n        /* \"#utility.yul\":2381:2413   */\n      tag_76\n        /* \"#utility.yul\":2407:2412   */\n      dup2\n        /* \"#utility.yul\":2381:2413   */\n      tag_40\n      jump\t// in\n    tag_76:\n        /* \"#utility.yul\":2278:2419   */\n      swap3\n      swap2\n      pop\n      pop\n      jump\t// out\n        /* \"#utility.yul\":2425:2547   */\n    tag_42:\n        /* \"#utility.yul\":2498:2522   */\n      tag_78\n        /* \"#utility.yul\":2516:2521   */\n      dup2\n        /* \"#utility.yul\":2498:2522   */\n      tag_29\n      jump\t// in\n    tag_78:\n        /* \"#utility.yul\":2491:2496   */\n      dup2\n        /* \"#utility.yul\":2488:2523   */\n      eq\n        /* \"#utility.yul\":2478:2541   */\n      tag_79\n      jumpi\n        /* \"#utility.yul\":2537:2538   */\n      0x00\n        /* \"#utility.yul\":2534:2535   */\n      dup1\n        /* \"#utility.yul\":2527:2539   */\n      revert\n        /* \"#utility.yul\":2478:2541   */\n    tag_79:\n        /* \"#utility.yul\":2425:2547   */\n      pop\n      jump\t// out\n        /* \"#utility.yul\":2553:2696   */\n    tag_43:\n        /* \"#utility.yul\":2610:2615   */\n      0x00\n        /* \"#utility.yul\":2641:2647   */\n      dup2\n        /* \"#utility.yul\":2635:2648   */\n      mload\n        /* \"#utility.yul\":2626:2648   */\n      swap1\n      pop\n        /* \"#utility.yul\":2657:2690   */\n      tag_81\n        /* \"#utility.yul\":2684:2689   */\n      dup2\n        /* \"#utility.yul\":2657:2690   */\n      tag_42\n      jump\t// in\n    tag_81:\n        /* \"#utility.yul\":2553:2696   */\n      swap3\n      swap2\n      pop\n      pop\n      jump\t// out\n        /* \"#utility.yul\":2702:3673   */\n    tag_26:\n        /* \"#utility.yul\":2805:2811   */\n      0x00\n        /* \"#utility.yul\":2813:2819   */\n      dup1\n        /* \"#utility.yul\":2821:2827   */\n      0x00\n        /* \"#utility.yul\":2829:2835   */\n      dup1\n        /* \"#utility.yul\":2837:2843   */\n      0x00\n        /* \"#utility.yul\":2886:2889   */\n      0xa0\n        /* \"#utility.yul\":2874:2883   */\n      dup7\n        /* \"#utility.yul\":2865:2872   */\n      dup9\n        /* \"#utility.yul\":2861:2884   */\n      sub\n        /* \"#utility.yul\":2857:2890   */\n      slt\n        /* \"#utility.yul\":2854:2974   */\n      iszero\n      tag_83\n      jumpi\n        /* \"#utility.yul\":2893:2972   */\n      tag_84\n      tag_34\n      jump\t// in\n    tag_84:\n        /* \"#utility.yul\":2854:2974   */\n    tag_83:\n        /* \"#utility.yul\":3013:3014   */\n      0x00\n        /* \"#utility.yul\":3038:3101   */\n      tag_85\n        /* \"#utility.yul\":3093:3100   */\n      dup9\n        /* \"#utility.yul\":3084:3090   */\n      dup3\n        /* \"#utility.yul\":3073:3082   */\n      dup10\n        /* \"#utility.yul\":3069:3091   */\n      add\n        /* \"#utility.yul\":3038:3101   */\n      tag_38\n      jump\t// in\n    tag_85:\n        /* \"#utility.yul\":3028:3101   */\n      swap6\n      pop\n        /* \"#utility.yul\":2984:3111   */\n      pop\n        /* \"#utility.yul\":3150:3152   */\n      0x20\n        /* \"#utility.yul\":3176:3239   */\n      tag_86\n        /* \"#utility.yul\":3231:3238   */\n      dup9\n        /* \"#utility.yul\":3222:3228   */\n      dup3\n        /* \"#utility.yul\":3211:3220   */\n      dup10\n        /* \"#utility.yul\":3207:3229   */\n      add\n        /* \"#utility.yul\":3176:3239   */\n      tag_41\n      jump\t// in\n    tag_86:\n        /* \"#utility.yul\":3166:3239   */\n      swap5\n      pop\n        /* \"#utility.yul\":3121:3249   */\n      pop\n        /* \"#utility.yul\":3288:3290   */\n      0x40\n        /* \"#utility.yul\":3314:3378   */\n      tag_87\n        /* \"#utility.yul\":3370:3377   */\n      dup9\n        /* \"#utility.yul\":3361:3367   */\n      dup3\n        /* \"#utility.yul\":3350:3359   */\n      dup10\n        /* \"#utility.yul\":3346:3368   */\n      add\n        /* \"#utility.yul\":3314:3378   */\n      tag_43\n      jump\t// in\n    tag_87:\n        /* \"#utility.yul\":3304:3378   */\n      swap4\n      pop\n        /* \"#utility.yul\":3259:3388   */\n      pop\n        /* \"#utility.yul\":3427:3429   */\n      0x60\n        /* \"#utility.yul\":3453:3517   */\n      tag_88\n        /* \"#utility.yul\":3509:3516   */\n      dup9\n        /* \"#utility.yul\":3500:3506   */\n      dup3\n        /* \"#utility.yul\":3489:3498   */\n      dup10\n        /* \"#utility.yul\":3485:3507   */\n      add\n        /* \"#utility.yul\":3453:3517   */\n      tag_43\n      jump\t// in\n    tag_88:\n        /* \"#utility.yul\":3443:3517   */\n      swap3\n      pop\n        /* \"#utility.yul\":3398:3527   */\n      pop\n        /* \"#utility.yul\":3566:3569   */\n      0x80\n        /* \"#utility.yul\":3593:3656   */\n      tag_89\n        /* \"#utility.yul\":3648:3655   */\n      dup9\n        /* \"#utility.yul\":3639:3645   */\n      dup3\n        /* \"#utility.yul\":3628:3637   */\n      dup10\n        /* \"#utility.yul\":3624:3646   */\n      add\n        /* \"#utility.yul\":3593:3656   */\n      tag_38\n      jump\t// in\n    tag_89:\n        /* \"#utility.yul\":3583:3656   */\n      swap2\n      pop\n        /* \"#utility.yul\":3537:3666   */\n      pop\n        /* \"#utility.yul\":2702:3673   */\n      swap3\n      swap6\n      pop\n      swap3\n      swap6\n      swap1\n      swap4\n      pop\n      jump\t// out\n        /* \"#utility.yul\":3679:4670   */\n    tag_28:\n        /* \"#utility.yul\":3718:3725   */\n      0x00\n        /* \"#utility.yul\":3741:3760   */\n      tag_91\n        /* \"#utility.yul\":3758:3759   */\n      dup3\n        /* \"#utility.yul\":3741:3760   */\n      tag_39\n      jump\t// in\n    tag_91:\n        /* \"#utility.yul\":3736:3760   */\n      swap2\n      pop\n        /* \"#utility.yul\":3774:3793   */\n      tag_92\n        /* \"#utility.yul\":3791:3792   */\n      dup4\n        /* \"#utility.yul\":3774:3793   */\n      tag_39\n      jump\t// in\n    tag_92:\n        /* \"#utility.yul\":3769:3793   */\n      swap3\n      pop\n        /* \"#utility.yul\":3975:3976   */\n      dup3\n        /* \"#utility.yul\":3907:3973   */\n      0x7fffffffffffffffffffffffffffffffffffffffffffffffffffffffffffffff\n        /* \"#utility.yul\":3903:3977   */\n      div\n        /* \"#utility.yul\":3900:3901   */\n      dup3\n        /* \"#utility.yul\":3897:3978   */\n      gt\n        /* \"#utility.yul\":3892:3893   */\n      0x00\n        /* \"#utility.yul\":3889:3890   */\n      dup5\n        /* \"#utility.yul\":3885:3894   */\n      sgt\n        /* \"#utility.yul\":3881:3882   */\n      0x00\n        /* \"#utility.yul\":3878:3879   */\n      dup5\n        /* \"#utility.yul\":3874:3883   */\n      sgt\n        /* \"#utility.yul\":3870:3895   */\n      and\n        /* \"#utility.yul\":3866:3979   */\n      and\n        /* \"#utility.yul\":3863:4002   */\n      iszero\n      tag_93\n      jumpi\n        /* \"#utility.yul\":3982:4000   */\n      tag_94\n      tag_31\n      jump\t// in\n    tag_94:\n        /* \"#utility.yul\":3863:4002   */\n    tag_93:\n        /* \"#utility.yul\":4186:4187   */\n      dup2\n        /* \"#utility.yul\":4118:4184   */\n      0x8000000000000000000000000000000000000000000000000000000000000000\n        /* \"#utility.yul\":4113:4188   */\n      sdiv\n        /* \"#utility.yul\":4110:4111   */\n      dup4\n        /* \"#utility.yul\":4106:4189   */\n      slt\n        /* \"#utility.yul\":4101:4102   */\n      0x00\n        /* \"#utility.yul\":4098:4099   */\n      dup5\n        /* \"#utility.yul\":4094:4103   */\n      slt\n        /* \"#utility.yul\":4090:4091   */\n      0x00\n        /* \"#utility.yul\":4087:4088   */\n      dup5\n        /* \"#utility.yul\":4083:4092   */\n      sgt\n        /* \"#utility.yul\":4079:4104   */\n      and\n        /* \"#utility.yul\":4075:4190   */\n      and\n        /* \"#utility.yul\":4072:4213   */\n      iszero\n      tag_95\n      jumpi\n        /* \"#utility.yul\":4193:4211   */\n      tag_96\n      tag_31\n      jump\t// in\n    tag_96:\n        /* \"#utility.yul\":4072:4213   */\n    tag_95:\n        /* \"#utility.yul\":4397:4398   */\n      dup3\n        /* \"#utility.yul\":4329:4395   */\n      0x8000000000000000000000000000000000000000000000000000000000000000\n        /* \"#utility.yul\":4324:4399   */\n      sdiv\n        /* \"#utility.yul\":4321:4322   */\n      dup3\n        /* \"#utility.yul\":4317:4400   */\n      slt\n        /* \"#utility.yul\":4312:4313   */\n      0x00\n        /* \"#utility.yul\":4309:4310   */\n      dup5\n        /* \"#utility.yul\":4305:4314   */\n      sgt\n        /* \"#utility.yul\":4301:4302   */\n      0x00\n        /* \"#utility.yul\":4298:4299   */\n      dup5\n        /* \"#utility.yul\":4294:4303   */\n      slt\n        /* \"#utility.yul\":4290:4315   */\n      and\n        /* \"#utility.yul\":4286:4401   */\n      and\n        /* \"#utility.yul\":4283:4424   */\n      iszero\n      tag_97\n      jumpi\n        /* \"#utility.yul\":4404:4422   */\n      tag_98\n      tag_31\n      jump\t// in\n    tag_98:\n        /* \"#utility.yul\":4283:4424   */\n    tag_97:\n        /* \"#utility.yul\":4607:4608   */\n      dup3\n        /* \"#utility.yul\":4539:4605   */\n      0x7fffffffffffffffffffffffffffffffffffffffffffffffffffffffffffffff\n        /* \"#utility.yul\":4534:4609   */\n      sdiv\n        /* \"#utility.yul\":4531:4532   */\n      dup3\n        /* \"#utility.yul\":4527:4610   */\n      slt\n        /* \"#utility.yul\":4522:4523   */\n      0x00\n        /* \"#utility.yul\":4519:4520   */\n      dup5\n        /* \"#utility.yul\":4515:4524   */\n      slt\n        /* \"#utility.yul\":4511:4512   */\n      0x00\n        /* \"#utility.yul\":4508:4509   */\n      dup5\n        /* \"#utility.yul\":4504:4513   */\n      slt\n        /* \"#utility.yul\":4500:4525   */\n      and\n        /* \"#utility.yul\":4496:4611   */\n      and\n        /* \"#utility.yul\":4493:4634   */\n      iszero\n      tag_99\n      jumpi\n        /* \"#utility.yul\":4614:4632   */\n      tag_100\n      tag_31\n      jump\t// in\n    tag_100:\n        /* \"#utility.yul\":4493:4634   */\n    tag_99:\n        /* \"#utility.yul\":4662:4663   */\n      dup3\n        /* \"#utility.yul\":4659:4660   */\n      dup3\n        /* \"#utility.yul\":4655:4664   */\n      mul\n        /* \"#utility.yul\":4644:4664   */\n      swap1\n      pop\n        /* \"#utility.yul\":3679:4670   */\n      swap3\n      swap2\n      pop\n      pop\n      jump\t// out\n\n    auxdata: 0xa26469706673582212205d0bf433c2d71552673001d608c8dcd112c4b65f5a5ed1d1e0ff171d05a59d9464736f6c63430008080033\n}\n",
				"bytecode": {
					"linkReferences": {},
					"object": "60806040526802b5e3af16b188000060005534801561001d57600080fd5b506104f58061002d6000396000f3fe6080604052600436106100295760003560e01c8063098de8201461002e578063b60d428814610059575b600080fd5b34801561003a57600080fd5b50610043610063565b6040516100509190610180565b60405180910390f35b610061610069565b005b60005481565b61007234610075565b50565b6000806100806100af565b90506000670de0b6b3a7640000848361009991906101ca565b6100a39190610253565b90508092505050919050565b600080738a753747a1fa494ec906ce90e9f37563a8af630e905060008173ffffffffffffffffffffffffffffffffffffffff1663feaf968c6040518163ffffffff1660e01b815260040160a06040518083038186803b15801561011157600080fd5b505afa158015610125573d6000803e3d6000fd5b505050506040513d601f19601f82011682018060405250810190610149919061032d565b5050509150506402540be4008161016091906103a8565b9250505090565b6000819050919050565b61017a81610167565b82525050565b60006020820190506101956000830184610171565b92915050565b7f4e487b7100000000000000000000000000000000000000000000000000000000600052601160045260246000fd5b60006101d582610167565b91506101e083610167565b9250817fffffffffffffffffffffffffffffffffffffffffffffffffffffffffffffffff04831182151516156102195761021861019b565b5b828202905092915050565b7f4e487b7100000000000000000000000000000000000000000000000000000000600052601260045260246000fd5b600061025e82610167565b915061026983610167565b92508261027957610278610224565b5b828204905092915050565b600080fd5b600069ffffffffffffffffffff82169050919050565b6102a881610289565b81146102b357600080fd5b50565b6000815190506102c58161029f565b92915050565b6000819050919050565b6102de816102cb565b81146102e957600080fd5b50565b6000815190506102fb816102d5565b92915050565b61030a81610167565b811461031557600080fd5b50565b60008151905061032781610301565b92915050565b600080600080600060a0868803121561034957610348610284565b5b6000610357888289016102b6565b9550506020610368888289016102ec565b945050604061037988828901610318565b935050606061038a88828901610318565b925050608061039b888289016102b6565b9150509295509295909350565b60006103b3826102cb565b91506103be836102cb565b9250827f7fffffffffffffffffffffffffffffffffffffffffffffffffffffffffffffff04821160008413600084131616156103fd576103fc61019b565b5b817f8000000000000000000000000000000000000000000000000000000000000000058312600084126000841316161561043a5761043961019b565b5b827f800000000000000000000000000000000000000000000000000000000000000005821260008413600084121616156104775761047661019b565b5b827f7fffffffffffffffffffffffffffffffffffffffffffffffffffffffffffffff05821260008412600084121616156104b4576104b361019b565b5b82820290509291505056fea26469706673582212205d0bf433c2d71552673001d608c8dcd112c4b65f5a5ed1d1e0ff171d05a59d9464736f6c63430008080033",
					"opcodes": "PUSH1 0x80 PUSH1 0x40 MSTORE PUSH9 0x2B5E3AF16B1880000 PUSH1 0x0 SSTORE CALLVALUE DUP1 ISZERO PUSH2 0x1D JUMPI PUSH1 0x0 DUP1 REVERT JUMPDEST POP PUSH2 0x4F5 DUP1 PUSH2 0x2D PUSH1 0x0 CODECOPY PUSH1 0x0 RETURN INVALID PUSH1 0x80 PUSH1 0x40 MSTORE PUSH1 0x4 CALLDATASIZE LT PUSH2 0x29 JUMPI PUSH1 0x0 CALLDATALOAD PUSH1 0xE0 SHR DUP1 PUSH4 0x98DE820 EQ PUSH2 0x2E JUMPI DUP1 PUSH4 0xB60D4288 EQ PUSH2 0x59 JUMPI JUMPDEST PUSH1 0x0 DUP1 REVERT JUMPDEST CALLVALUE DUP1 ISZERO PUSH2 0x3A JUMPI PUSH1 0x0 DUP1 REVERT JUMPDEST POP PUSH2 0x43 PUSH2 0x63 JUMP JUMPDEST PUSH1 0x40 MLOAD PUSH2 0x50 SWAP2 SWAP1 PUSH2 0x180 JUMP JUMPDEST PUSH1 0x40 MLOAD DUP1 SWAP2 SUB SWAP1 RETURN JUMPDEST PUSH2 0x61 PUSH2 0x69 JUMP JUMPDEST STOP JUMPDEST PUSH1 0x0 SLOAD DUP2 JUMP JUMPDEST PUSH2 0x72 CALLVALUE PUSH2 0x75 JUMP JUMPDEST POP JUMP JUMPDEST PUSH1 0x0 DUP1 PUSH2 0x80 PUSH2 0xAF JUMP JUMPDEST SWAP1 POP PUSH1 0x0 PUSH8 0xDE0B6B3A7640000 DUP5 DUP4 PUSH2 0x99 SWAP2 SWAP1 PUSH2 0x1CA JUMP JUMPDEST PUSH2 0xA3 SWAP2 SWAP1 PUSH2 0x253 JUMP JUMPDEST SWAP1 POP DUP1 SWAP3 POP POP POP SWAP2 SWAP1 POP JUMP JUMPDEST PUSH1 0x0 DUP1 PUSH20 0x8A753747A1FA494EC906CE90E9F37563A8AF630E SWAP1 POP PUSH1 0x0 DUP2 PUSH20 0xFFFFFFFFFFFFFFFFFFFFFFFFFFFFFFFFFFFFFFFF AND PUSH4 0xFEAF968C PUSH1 0x40 MLOAD DUP2 PUSH4 0xFFFFFFFF AND PUSH1 0xE0 SHL DUP2 MSTORE PUSH1 0x4 ADD PUSH1 0xA0 PUSH1 0x40 MLOAD DUP1 DUP4 SUB DUP2 DUP7 DUP1 EXTCODESIZE ISZERO DUP1 ISZERO PUSH2 0x111 JUMPI PUSH1 0x0 DUP1 REVERT JUMPDEST POP GAS STATICCALL ISZERO DUP1 ISZERO PUSH2 0x125 JUMPI RETURNDATASIZE PUSH1 0x0 DUP1 RETURNDATACOPY RETURNDATASIZE PUSH1 0x0 REVERT JUMPDEST POP POP POP POP PUSH1 0x40 MLOAD RETURNDATASIZE PUSH1 0x1F NOT PUSH1 0x1F DUP3 ADD AND DUP3 ADD DUP1 PUSH1 0x40 MSTORE POP DUP2 ADD SWAP1 PUSH2 0x149 SWAP2 SWAP1 PUSH2 0x32D JUMP JUMPDEST POP POP POP SWAP2 POP POP PUSH5 0x2540BE400 DUP2 PUSH2 0x160 SWAP2 SWAP1 PUSH2 0x3A8 JUMP JUMPDEST SWAP3 POP POP POP SWAP1 JUMP JUMPDEST PUSH1 0x0 DUP2 SWAP1 POP SWAP2 SWAP1 POP JUMP JUMPDEST PUSH2 0x17A DUP2 PUSH2 0x167 JUMP JUMPDEST DUP3 MSTORE POP POP JUMP JUMPDEST PUSH1 0x0 PUSH1 0x20 DUP3 ADD SWAP1 POP PUSH2 0x195 PUSH1 0x0 DUP4 ADD DUP5 PUSH2 0x171 JUMP JUMPDEST SWAP3 SWAP2 POP POP JUMP JUMPDEST PUSH32 0x4E487B7100000000000000000000000000000000000000000000000000000000 PUSH1 0x0 MSTORE PUSH1 0x11 PUSH1 0x4 MSTORE PUSH1 0x24 PUSH1 0x0 REVERT JUMPDEST PUSH1 0x0 PUSH2 0x1D5 DUP3 PUSH2 0x167 JUMP JUMPDEST SWAP2 POP PUSH2 0x1E0 DUP4 PUSH2 0x167 JUMP JUMPDEST SWAP3 POP DUP2 PUSH32 0xFFFFFFFFFFFFFFFFFFFFFFFFFFFFFFFFFFFFFFFFFFFFFFFFFFFFFFFFFFFFFFFF DIV DUP4 GT DUP3 ISZERO ISZERO AND ISZERO PUSH2 0x219 JUMPI PUSH2 0x218 PUSH2 0x19B JUMP JUMPDEST JUMPDEST DUP3 DUP3 MUL SWAP1 POP SWAP3 SWAP2 POP POP JUMP JUMPDEST PUSH32 0x4E487B7100000000000000000000000000000000000000000000000000000000 PUSH1 0x0 MSTORE PUSH1 0x12 PUSH1 0x4 MSTORE PUSH1 0x24 PUSH1 0x0 REVERT JUMPDEST PUSH1 0x0 PUSH2 0x25E DUP3 PUSH2 0x167 JUMP JUMPDEST SWAP2 POP PUSH2 0x269 DUP4 PUSH2 0x167 JUMP JUMPDEST SWAP3 POP DUP3 PUSH2 0x279 JUMPI PUSH2 0x278 PUSH2 0x224 JUMP JUMPDEST JUMPDEST DUP3 DUP3 DIV SWAP1 POP SWAP3 SWAP2 POP POP JUMP JUMPDEST PUSH1 0x0 DUP1 REVERT JUMPDEST PUSH1 0x0 PUSH10 0xFFFFFFFFFFFFFFFFFFFF DUP3 AND SWAP1 POP SWAP2 SWAP1 POP JUMP JUMPDEST PUSH2 0x2A8 DUP2 PUSH2 0x289 JUMP JUMPDEST DUP2 EQ PUSH2 0x2B3 JUMPI PUSH1 0x0 DUP1 REVERT JUMPDEST POP JUMP JUMPDEST PUSH1 0x0 DUP2 MLOAD SWAP1 POP PUSH2 0x2C5 DUP2 PUSH2 0x29F JUMP JUMPDEST SWAP3 SWAP2 POP POP JUMP JUMPDEST PUSH1 0x0 DUP2 SWAP1 POP SWAP2 SWAP1 POP JUMP JUMPDEST PUSH2 0x2DE DUP2 PUSH2 0x2CB JUMP JUMPDEST DUP2 EQ PUSH2 0x2E9 JUMPI PUSH1 0x0 DUP1 REVERT JUMPDEST POP JUMP JUMPDEST PUSH1 0x0 DUP2 MLOAD SWAP1 POP PUSH2 0x2FB DUP2 PUSH2 0x2D5 JUMP JUMPDEST SWAP3 SWAP2 POP POP JUMP JUMPDEST PUSH2 0x30A DUP2 PUSH2 0x167 JUMP JUMPDEST DUP2 EQ PUSH2 0x315 JUMPI PUSH1 0x0 DUP1 REVERT JUMPDEST POP JUMP JUMPDEST PUSH1 0x0 DUP2 MLOAD SWAP1 POP PUSH2 0x327 DUP2 PUSH2 0x301 JUMP JUMPDEST SWAP3 SWAP2 POP POP JUMP JUMPDEST PUSH1 0x0 DUP1 PUSH1 0x0 DUP1 PUSH1 0x0 PUSH1 0xA0 DUP7 DUP9 SUB SLT ISZERO PUSH2 0x349 JUMPI PUSH2 0x348 PUSH2 0x284 JUMP JUMPDEST JUMPDEST PUSH1 0x0 PUSH2 0x357 DUP9 DUP3 DUP10 ADD PUSH2 0x2B6 JUMP JUMPDEST SWAP6 POP POP PUSH1 0x20 PUSH2 0x368 DUP9 DUP3 DUP10 ADD PUSH2 0x2EC JUMP JUMPDEST SWAP5 POP POP PUSH1 0x40 PUSH2 0x379 DUP9 DUP3 DUP10 ADD PUSH2 0x318 JUMP JUMPDEST SWAP4 POP POP PUSH1 0x60 PUSH2 0x38A DUP9 DUP3 DUP10 ADD PUSH2 0x318 JUMP JUMPDEST SWAP3 POP POP PUSH1 0x80 PUSH2 0x39B DUP9 DUP3 DUP10 ADD PUSH2 0x2B6 JUMP JUMPDEST SWAP2 POP POP SWAP3 SWAP6 POP SWAP3 SWAP6 SWAP1 SWAP4 POP JUMP JUMPDEST PUSH1 0x0 PUSH2 0x3B3 DUP3 PUSH2 0x2CB JUMP JUMPDEST SWAP2 POP PUSH2 0x3BE DUP4 PUSH2 0x2CB JUMP JUMPDEST SWAP3 POP DUP3 PUSH32 0x7FFFFFFFFFFFFFFFFFFFFFFFFFFFFFFFFFFFFFFFFFFFFFFFFFFFFFFFFFFFFFFF DIV DUP3 GT PUSH1 0x0 DUP5 SGT PUSH1 0x0 DUP5 SGT AND AND ISZERO PUSH2 0x3FD JUMPI PUSH2 0x3FC PUSH2 0x19B JUMP JUMPDEST JUMPDEST DUP2 PUSH32 0x8000000000000000000000000000000000000000000000000000000000000000 SDIV DUP4 SLT PUSH1 0x0 DUP5 SLT PUSH1 0x0 DUP5 SGT AND AND ISZERO PUSH2 0x43A JUMPI PUSH2 0x439 PUSH2 0x19B JUMP JUMPDEST JUMPDEST DUP3 PUSH32 0x8000000000000000000000000000000000000000000000000000000000000000 SDIV DUP3 SLT PUSH1 0x0 DUP5 SGT PUSH1 0x0 DUP5 SLT AND AND ISZERO PUSH2 0x477 JUMPI PUSH2 0x476 PUSH2 0x19B JUMP JUMPDEST JUMPDEST DUP3 PUSH32 0x7FFFFFFFFFFFFFFFFFFFFFFFFFFFFFFFFFFFFFFFFFFFFFFFFFFFFFFFFFFFFFFF SDIV DUP3 SLT PUSH1 0x0 DUP5 SLT PUSH1 0x0 DUP5 SLT AND AND ISZERO PUSH2 0x4B4 JUMPI PUSH2 0x4B3 PUSH2 0x19B JUMP JUMPDEST JUMPDEST DUP3 DUP3 MUL SWAP1 POP SWAP3 SWAP2 POP POP JUMP INVALID LOG2 PUSH5 0x6970667358 0x22 SLT KECCAK256 0x5D SIGNEXTEND DELEGATECALL CALLER 0xC2 0xD7 ISZERO MSTORE PUSH8 0x3001D608C8DCD112 0xC4 0xB6 0x5F GAS 0x5E 0xD1 0xD1 0xE0 SELFDESTRUCT OR SAR SDIV 0xA5 SWAP14 SWAP5 PUSH5 0x736F6C6343 STOP ADDMOD ADDMOD STOP CALLER "
				},
				"gasEstimates": {
					"creation": {
						"codeDepositCost": "253800",
						"executionCost": "22400",
						"totalCost": "276200"
					},
					"external": {
						"fund()": "infinite",
						"minimumUsd()": "2407"
					}
				},
				"methodIdentifiers": {
					"fund()": "b60d4288",
					"minimumUsd()": "098de820"
				}
			},
			"storageLayout": {
				"storage": [
					{
						"astId": 122,
						"contract": "contracts/fundme.sol:FundMe",
						"label": "minimumUsd",
						"offset": 0,
						"slot": "0",
						"type": "t_uint256"
					}
				],
				"types": {
					"t_uint256": {
						"encoding": "inplace",
						"label": "uint256",
						"numberOfBytes": "32"
					}
				}
			},
			"userdoc": {
				"kind": "user",
				"methods": {},
				"version": 1
			}
		}
	}
}