{
	"contracts/fundme.sol": {
		"FundMe": {
			"abi": [
				{
					"inputs": [
						{
							"internalType": "address",
							"name": "",
							"type": "address"
						}
					],
					"name": "addressToAmountFunded",
					"outputs": [
						{
							"internalType": "uint256",
							"name": "",
							"type": "uint256"
						}
					],
					"stateMutability": "view",
					"type": "function"
				},
				{
					"inputs": [],
					"name": "fund",
					"outputs": [],
					"stateMutability": "payable",
					"type": "function"
				},
				{
					"inputs": [
						{
							"internalType": "uint256",
							"name": "",
							"type": "uint256"
						}
					],
					"name": "funders",
					"outputs": [
						{
							"internalType": "address",
							"name": "",
							"type": "address"
						}
					],
					"stateMutability": "view",
					"type": "function"
				},
				{
					"inputs": [],
					"name": "minimumUsd",
					"outputs": [
						{
							"internalType": "uint256",
							"name": "",
							"type": "uint256"
						}
					],
					"stateMutability": "view",
					"type": "function"
				},
				{
					"inputs": [],
					"name": "withdraw",
					"outputs": [],
					"stateMutability": "nonpayable",
					"type": "function"
				}
			],
			"devdoc": {
				"kind": "dev",
				"methods": {},
				"version": 1
			},
			"evm": {
				"assembly": "    /* \"contracts/fundme.sol\":94:992  contract FundMe{... */\n  mstore(0x40, 0x80)\n    /* \"contracts/fundme.sol\":185:194  50 * 1e18 */\n  0x02b5e3af16b1880000\n    /* \"contracts/fundme.sol\":157:194  uint256 public minimumUsd = 50 * 1e18 */\n  0x00\n  sstore\n    /* \"contracts/fundme.sol\":94:992  contract FundMe{... */\n  callvalue\n  dup1\n  iszero\n  tag_1\n  jumpi\n  0x00\n  dup1\n  revert\ntag_1:\n  pop\n  dataSize(sub_0)\n  dup1\n  dataOffset(sub_0)\n  0x00\n  codecopy\n  0x00\n  return\nstop\n\nsub_0: assembly {\n        /* \"contracts/fundme.sol\":94:992  contract FundMe{... */\n      mstore(0x40, 0x80)\n      jumpi(tag_1, lt(calldatasize, 0x04))\n      shr(0xe0, calldataload(0x00))\n      dup1\n      0x098de820\n      eq\n      tag_2\n      jumpi\n      dup1\n      0x3ccfd60b\n      eq\n      tag_3\n      jumpi\n      dup1\n      0x3e47d6f3\n      eq\n      tag_4\n      jumpi\n      dup1\n      0xb60d4288\n      eq\n      tag_5\n      jumpi\n      dup1\n      0xdc0d3dff\n      eq\n      tag_6\n      jumpi\n    tag_1:\n      0x00\n      dup1\n      revert\n        /* \"contracts/fundme.sol\":157:194  uint256 public minimumUsd = 50 * 1e18 */\n    tag_2:\n      callvalue\n      dup1\n      iszero\n      tag_7\n      jumpi\n      0x00\n      dup1\n      revert\n    tag_7:\n      pop\n      tag_8\n      tag_9\n      jump\t// in\n    tag_8:\n      mload(0x40)\n      tag_10\n      swap2\n      swap1\n      tag_11\n      jump\t// in\n    tag_10:\n      mload(0x40)\n      dup1\n      swap2\n      sub\n      swap1\n      return\n        /* \"contracts/fundme.sol\":636:983  function withdraw() public {... */\n    tag_3:\n      callvalue\n      dup1\n      iszero\n      tag_12\n      jumpi\n      0x00\n      dup1\n      revert\n    tag_12:\n      pop\n      tag_13\n      tag_14\n      jump\t// in\n    tag_13:\n      stop\n        /* \"contracts/fundme.sol\":251:307  mapping(address => uint256) public addressToAmountFunded */\n    tag_4:\n      callvalue\n      dup1\n      iszero\n      tag_15\n      jumpi\n      0x00\n      dup1\n      revert\n    tag_15:\n      pop\n      tag_16\n      0x04\n      dup1\n      calldatasize\n      sub\n      dup2\n      add\n      swap1\n      tag_17\n      swap2\n      swap1\n      tag_18\n      jump\t// in\n    tag_17:\n      tag_19\n      jump\t// in\n    tag_16:\n      mload(0x40)\n      tag_20\n      swap2\n      swap1\n      tag_11\n      jump\t// in\n    tag_20:\n      mload(0x40)\n      dup1\n      swap2\n      sub\n      swap1\n      return\n        /* \"contracts/fundme.sol\":316:628  function fund() public payable{... */\n    tag_5:\n      tag_21\n      tag_22\n      jump\t// in\n    tag_21:\n      stop\n        /* \"contracts/fundme.sol\":220:244  address[] public funders */\n    tag_6:\n      callvalue\n      dup1\n      iszero\n      tag_23\n      jumpi\n      0x00\n      dup1\n      revert\n    tag_23:\n      pop\n      tag_24\n      0x04\n      dup1\n      calldatasize\n      sub\n      dup2\n      add\n      swap1\n      tag_25\n      swap2\n      swap1\n      tag_26\n      jump\t// in\n    tag_25:\n      tag_27\n      jump\t// in\n    tag_24:\n      mload(0x40)\n      tag_28\n      swap2\n      swap1\n      tag_29\n      jump\t// in\n    tag_28:\n      mload(0x40)\n      dup1\n      swap2\n      sub\n      swap1\n      return\n        /* \"contracts/fundme.sol\":157:194  uint256 public minimumUsd = 50 * 1e18 */\n    tag_9:\n      sload(0x00)\n      dup2\n      jump\t// out\n        /* \"contracts/fundme.sol\":636:983  function withdraw() public {... */\n    tag_14:\n        /* \"contracts/fundme.sol\":680:699  uint256 funderIndex */\n      0x00\n        /* \"contracts/fundme.sol\":676:894  for(uint256 funderIndex = 0;funderIndex < funders.length; funderIndex = funderIndex++){... */\n    tag_31:\n        /* \"contracts/fundme.sol\":718:725  funders */\n      0x01\n        /* \"contracts/fundme.sol\":718:732  funders.length */\n      dup1\n      sload\n      swap1\n      pop\n        /* \"contracts/fundme.sol\":704:715  funderIndex */\n      dup2\n        /* \"contracts/fundme.sol\":704:732  funderIndex < funders.length */\n      lt\n        /* \"contracts/fundme.sol\":676:894  for(uint256 funderIndex = 0;funderIndex < funders.length; funderIndex = funderIndex++){... */\n      iszero\n      tag_32\n      jumpi\n        /* \"contracts/fundme.sol\":797:811  address funder */\n      0x00\n        /* \"contracts/fundme.sol\":814:821  funders */\n      0x01\n        /* \"contracts/fundme.sol\":822:833  funderIndex */\n      dup3\n        /* \"contracts/fundme.sol\":814:834  funders[funderIndex] */\n      dup2\n      sload\n      dup2\n      lt\n      tag_34\n      jumpi\n      tag_35\n      tag_36\n      jump\t// in\n    tag_35:\n    tag_34:\n      swap1\n      0x00\n      mstore\n      keccak256(0x00, 0x20)\n      add\n      0x00\n      swap1\n      sload\n      swap1\n      0x0100\n      exp\n      swap1\n      div\n      0xffffffffffffffffffffffffffffffffffffffff\n      and\n        /* \"contracts/fundme.sol\":797:834  address funder = funders[funderIndex] */\n      swap1\n      pop\n        /* \"contracts/fundme.sol\":881:882  0 */\n      0x00\n        /* \"contracts/fundme.sol\":849:870  addressToAmountFunded */\n      0x02\n        /* \"contracts/fundme.sol\":849:878  addressToAmountFunded[funder] */\n      0x00\n        /* \"contracts/fundme.sol\":871:877  funder */\n      dup4\n        /* \"contracts/fundme.sol\":849:878  addressToAmountFunded[funder] */\n      0xffffffffffffffffffffffffffffffffffffffff\n      and\n      0xffffffffffffffffffffffffffffffffffffffff\n      and\n      dup2\n      mstore\n      0x20\n      add\n      swap1\n      dup2\n      mstore\n      0x20\n      add\n      0x00\n      keccak256\n        /* \"contracts/fundme.sol\":849:882  addressToAmountFunded[funder] = 0 */\n      dup2\n      swap1\n      sstore\n      pop\n        /* \"contracts/fundme.sol\":762:894  {... */\n      pop\n        /* \"contracts/fundme.sol\":748:761  funderIndex++ */\n      dup1\n      dup1\n      tag_38\n      swap1\n      tag_39\n      jump\t// in\n    tag_38:\n      swap2\n      pop\n        /* \"contracts/fundme.sol\":734:761  funderIndex = funderIndex++ */\n      swap1\n      pop\n        /* \"contracts/fundme.sol\":676:894  for(uint256 funderIndex = 0;funderIndex < funders.length; funderIndex = funderIndex++){... */\n      jump(tag_31)\n    tag_32:\n      pop\n        /* \"contracts/fundme.sol\":636:983  function withdraw() public {... */\n      jump\t// out\n        /* \"contracts/fundme.sol\":251:307  mapping(address => uint256) public addressToAmountFunded */\n    tag_19:\n      mstore(0x20, 0x02)\n      dup1\n      0x00\n      mstore\n      keccak256(0x00, 0x40)\n      0x00\n      swap2\n      pop\n      swap1\n      pop\n      sload\n      dup2\n      jump\t// out\n        /* \"contracts/fundme.sol\":316:628  function fund() public payable{... */\n    tag_22:\n        /* \"contracts/fundme.sol\":426:455  msg.value.getConversionRate() */\n      tag_41\n        /* \"contracts/fundme.sol\":426:435  msg.value */\n      callvalue\n        /* \"contracts/fundme.sol\":426:453  msg.value.getConversionRate */\n      tag_42\n        /* \"contracts/fundme.sol\":426:455  msg.value.getConversionRate() */\n      jump\t// in\n    tag_41:\n      pop\n        /* \"contracts/fundme.sol\":538:545  funders */\n      0x01\n        /* \"contracts/fundme.sol\":551:561  msg.sender */\n      caller\n        /* \"contracts/fundme.sol\":538:562  funders.push(msg.sender) */\n      swap1\n      dup1\n      0x01\n      dup2\n      sload\n      add\n      dup1\n      dup3\n      sstore\n      dup1\n      swap2\n      pop\n      pop\n      0x01\n      swap1\n      sub\n      swap1\n      0x00\n      mstore\n      keccak256(0x00, 0x20)\n      add\n      0x00\n      swap1\n      swap2\n      swap1\n      swap2\n      swap1\n      swap2\n      0x0100\n      exp\n      dup2\n      sload\n      dup2\n      0xffffffffffffffffffffffffffffffffffffffff\n      mul\n      not\n      and\n      swap1\n      dup4\n      0xffffffffffffffffffffffffffffffffffffffff\n      and\n      mul\n      or\n      swap1\n      sstore\n      pop\n        /* \"contracts/fundme.sol\":610:619  msg.value */\n      callvalue\n        /* \"contracts/fundme.sol\":573:594  addressToAmountFunded */\n      0x02\n        /* \"contracts/fundme.sol\":573:606  addressToAmountFunded[msg.sender] */\n      0x00\n        /* \"contracts/fundme.sol\":595:605  msg.sender */\n      caller\n        /* \"contracts/fundme.sol\":573:606  addressToAmountFunded[msg.sender] */\n      0xffffffffffffffffffffffffffffffffffffffff\n      and\n      0xffffffffffffffffffffffffffffffffffffffff\n      and\n      dup2\n      mstore\n      0x20\n      add\n      swap1\n      dup2\n      mstore\n      0x20\n      add\n      0x00\n      keccak256\n      0x00\n        /* \"contracts/fundme.sol\":573:619  addressToAmountFunded[msg.sender] += msg.value */\n      dup3\n      dup3\n      sload\n      tag_44\n      swap2\n      swap1\n      tag_45\n      jump\t// in\n    tag_44:\n      swap3\n      pop\n      pop\n      dup2\n      swap1\n      sstore\n      pop\n        /* \"contracts/fundme.sol\":316:628  function fund() public payable{... */\n      jump\t// out\n        /* \"contracts/fundme.sol\":220:244  address[] public funders */\n    tag_27:\n      0x01\n      dup2\n      dup2\n      sload\n      dup2\n      lt\n      tag_46\n      jumpi\n      0x00\n      dup1\n      revert\n    tag_46:\n      swap1\n      0x00\n      mstore\n      keccak256(0x00, 0x20)\n      add\n      0x00\n      swap2\n      pop\n      sload\n      swap1\n      0x0100\n      exp\n      swap1\n      div\n      0xffffffffffffffffffffffffffffffffffffffff\n      and\n      dup2\n      jump\t// out\n        /* \"contracts/PriceConverter.sol\":745:966  function getConversionRate(uint256 ethAmount) internal view returns(uint256){... */\n    tag_42:\n        /* \"contracts/PriceConverter.sol\":813:820  uint256 */\n      0x00\n        /* \"contracts/PriceConverter.sol\":832:848  uint256 ethPrice */\n      dup1\n        /* \"contracts/PriceConverter.sol\":851:861  getPrice() */\n      tag_49\n        /* \"contracts/PriceConverter.sol\":851:859  getPrice */\n      tag_50\n        /* \"contracts/PriceConverter.sol\":851:861  getPrice() */\n      jump\t// in\n    tag_49:\n        /* \"contracts/PriceConverter.sol\":832:861  uint256 ethPrice = getPrice() */\n      swap1\n      pop\n        /* \"contracts/PriceConverter.sol\":872:894  uint256 ethAmountInUsd */\n      0x00\n        /* \"contracts/PriceConverter.sol\":922:926  1e18 */\n      0x0de0b6b3a7640000\n        /* \"contracts/PriceConverter.sol\":909:918  ethAmount */\n      dup5\n        /* \"contracts/PriceConverter.sol\":898:906  ethPrice */\n      dup4\n        /* \"contracts/PriceConverter.sol\":898:918  ethPrice * ethAmount */\n      tag_51\n      swap2\n      swap1\n      tag_52\n      jump\t// in\n    tag_51:\n        /* \"contracts/PriceConverter.sol\":897:926  (ethPrice * ethAmount) / 1e18 */\n      tag_53\n      swap2\n      swap1\n      tag_54\n      jump\t// in\n    tag_53:\n        /* \"contracts/PriceConverter.sol\":872:926  uint256 ethAmountInUsd = (ethPrice * ethAmount) / 1e18 */\n      swap1\n      pop\n        /* \"contracts/PriceConverter.sol\":944:958  ethAmountInUsd */\n      dup1\n        /* \"contracts/PriceConverter.sol\":937:958  return ethAmountInUsd */\n      swap3\n      pop\n      pop\n      pop\n        /* \"contracts/PriceConverter.sol\":745:966  function getConversionRate(uint256 ethAmount) internal view returns(uint256){... */\n      swap2\n      swap1\n      pop\n      jump\t// out\n        /* \"contracts/PriceConverter.sol\":191:575  function getPrice() internal view returns(uint256) {... */\n    tag_50:\n        /* \"contracts/PriceConverter.sol\":233:240  uint256 */\n      0x00\n        /* \"contracts/PriceConverter.sol\":323:354  AggregatorV3Interface priceFeed */\n      dup1\n        /* \"contracts/PriceConverter.sol\":379:421  0x8A753747A1Fa494EC906cE90E9f37563A8AF630e */\n      0x8a753747a1fa494ec906ce90e9f37563a8af630e\n        /* \"contracts/PriceConverter.sol\":323:422  AggregatorV3Interface priceFeed = AggregatorV3Interface(0x8A753747A1Fa494EC906cE90E9f37563A8AF630e) */\n      swap1\n      pop\n        /* \"contracts/PriceConverter.sol\":435:447  int256 price */\n      0x00\n        /* \"contracts/PriceConverter.sol\":464:473  priceFeed */\n      dup2\n        /* \"contracts/PriceConverter.sol\":464:489  priceFeed.latestRoundData */\n      0xffffffffffffffffffffffffffffffffffffffff\n      and\n      0xfeaf968c\n        /* \"contracts/PriceConverter.sol\":464:491  priceFeed.latestRoundData() */\n      mload(0x40)\n      dup2\n      0xffffffff\n      and\n      0xe0\n      shl\n      dup2\n      mstore\n      0x04\n      add\n      0xa0\n      mload(0x40)\n      dup1\n      dup4\n      sub\n      dup2\n      dup7\n      dup1\n      extcodesize\n      iszero\n      dup1\n      iszero\n      tag_56\n      jumpi\n      0x00\n      dup1\n      revert\n    tag_56:\n      pop\n      gas\n      staticcall\n      iszero\n      dup1\n      iszero\n      tag_58\n      jumpi\n      returndatasize\n      0x00\n      dup1\n      returndatacopy\n      revert(0x00, returndatasize)\n    tag_58:\n      pop\n      pop\n      pop\n      pop\n      mload(0x40)\n      returndatasize\n      not(0x1f)\n      0x1f\n      dup3\n      add\n      and\n      dup3\n      add\n      dup1\n      0x40\n      mstore\n      pop\n      dup2\n      add\n      swap1\n      tag_59\n      swap2\n      swap1\n      tag_60\n      jump\t// in\n    tag_59:\n        /* \"contracts/PriceConverter.sol\":433:491  (,int256 price,,,) = ... */\n      pop\n      pop\n      pop\n      swap2\n      pop\n      pop\n        /* \"contracts/PriceConverter.sol\":562:566  1e10 */\n      0x02540be400\n        /* \"contracts/PriceConverter.sol\":554:559  price */\n      dup2\n        /* \"contracts/PriceConverter.sol\":554:566  price * 1e10 */\n      tag_61\n      swap2\n      swap1\n      tag_62\n      jump\t// in\n    tag_61:\n        /* \"contracts/PriceConverter.sol\":539:567  return uint256(price * 1e10) */\n      swap3\n      pop\n      pop\n      pop\n        /* \"contracts/PriceConverter.sol\":191:575  function getPrice() internal view returns(uint256) {... */\n      swap1\n      jump\t// out\n        /* \"#utility.yul\":7:84   */\n    tag_63:\n        /* \"#utility.yul\":44:51   */\n      0x00\n        /* \"#utility.yul\":73:78   */\n      dup2\n        /* \"#utility.yul\":62:78   */\n      swap1\n      pop\n        /* \"#utility.yul\":7:84   */\n      swap2\n      swap1\n      pop\n      jump\t// out\n        /* \"#utility.yul\":90:208   */\n    tag_64:\n        /* \"#utility.yul\":177:201   */\n      tag_87\n        /* \"#utility.yul\":195:200   */\n      dup2\n        /* \"#utility.yul\":177:201   */\n      tag_63\n      jump\t// in\n    tag_87:\n        /* \"#utility.yul\":172:175   */\n      dup3\n        /* \"#utility.yul\":165:202   */\n      mstore\n        /* \"#utility.yul\":90:208   */\n      pop\n      pop\n      jump\t// out\n        /* \"#utility.yul\":214:436   */\n    tag_11:\n        /* \"#utility.yul\":307:311   */\n      0x00\n        /* \"#utility.yul\":345:347   */\n      0x20\n        /* \"#utility.yul\":334:343   */\n      dup3\n        /* \"#utility.yul\":330:348   */\n      add\n        /* \"#utility.yul\":322:348   */\n      swap1\n      pop\n        /* \"#utility.yul\":358:429   */\n      tag_89\n        /* \"#utility.yul\":426:427   */\n      0x00\n        /* \"#utility.yul\":415:424   */\n      dup4\n        /* \"#utility.yul\":411:428   */\n      add\n        /* \"#utility.yul\":402:408   */\n      dup5\n        /* \"#utility.yul\":358:429   */\n      tag_64\n      jump\t// in\n    tag_89:\n        /* \"#utility.yul\":214:436   */\n      swap3\n      swap2\n      pop\n      pop\n      jump\t// out\n        /* \"#utility.yul\":523:640   */\n    tag_66:\n        /* \"#utility.yul\":632:633   */\n      0x00\n        /* \"#utility.yul\":629:630   */\n      dup1\n        /* \"#utility.yul\":622:634   */\n      revert\n        /* \"#utility.yul\":769:895   */\n    tag_68:\n        /* \"#utility.yul\":806:813   */\n      0x00\n        /* \"#utility.yul\":846:888   */\n      0xffffffffffffffffffffffffffffffffffffffff\n        /* \"#utility.yul\":839:844   */\n      dup3\n        /* \"#utility.yul\":835:889   */\n      and\n        /* \"#utility.yul\":824:889   */\n      swap1\n      pop\n        /* \"#utility.yul\":769:895   */\n      swap2\n      swap1\n      pop\n      jump\t// out\n        /* \"#utility.yul\":901:997   */\n    tag_69:\n        /* \"#utility.yul\":938:945   */\n      0x00\n        /* \"#utility.yul\":967:991   */\n      tag_95\n        /* \"#utility.yul\":985:990   */\n      dup3\n        /* \"#utility.yul\":967:991   */\n      tag_68\n      jump\t// in\n    tag_95:\n        /* \"#utility.yul\":956:991   */\n      swap1\n      pop\n        /* \"#utility.yul\":901:997   */\n      swap2\n      swap1\n      pop\n      jump\t// out\n        /* \"#utility.yul\":1003:1125   */\n    tag_70:\n        /* \"#utility.yul\":1076:1100   */\n      tag_97\n        /* \"#utility.yul\":1094:1099   */\n      dup2\n        /* \"#utility.yul\":1076:1100   */\n      tag_69\n      jump\t// in\n    tag_97:\n        /* \"#utility.yul\":1069:1074   */\n      dup2\n        /* \"#utility.yul\":1066:1101   */\n      eq\n        /* \"#utility.yul\":1056:1119   */\n      tag_98\n      jumpi\n        /* \"#utility.yul\":1115:1116   */\n      0x00\n        /* \"#utility.yul\":1112:1113   */\n      dup1\n        /* \"#utility.yul\":1105:1117   */\n      revert\n        /* \"#utility.yul\":1056:1119   */\n    tag_98:\n        /* \"#utility.yul\":1003:1125   */\n      pop\n      jump\t// out\n        /* \"#utility.yul\":1131:1270   */\n    tag_71:\n        /* \"#utility.yul\":1177:1182   */\n      0x00\n        /* \"#utility.yul\":1215:1221   */\n      dup2\n        /* \"#utility.yul\":1202:1222   */\n      calldataload\n        /* \"#utility.yul\":1193:1222   */\n      swap1\n      pop\n        /* \"#utility.yul\":1231:1264   */\n      tag_100\n        /* \"#utility.yul\":1258:1263   */\n      dup2\n        /* \"#utility.yul\":1231:1264   */\n      tag_70\n      jump\t// in\n    tag_100:\n        /* \"#utility.yul\":1131:1270   */\n      swap3\n      swap2\n      pop\n      pop\n      jump\t// out\n        /* \"#utility.yul\":1276:1605   */\n    tag_18:\n        /* \"#utility.yul\":1335:1341   */\n      0x00\n        /* \"#utility.yul\":1384:1386   */\n      0x20\n        /* \"#utility.yul\":1372:1381   */\n      dup3\n        /* \"#utility.yul\":1363:1370   */\n      dup5\n        /* \"#utility.yul\":1359:1382   */\n      sub\n        /* \"#utility.yul\":1355:1387   */\n      slt\n        /* \"#utility.yul\":1352:1471   */\n      iszero\n      tag_102\n      jumpi\n        /* \"#utility.yul\":1390:1469   */\n      tag_103\n      tag_66\n      jump\t// in\n    tag_103:\n        /* \"#utility.yul\":1352:1471   */\n    tag_102:\n        /* \"#utility.yul\":1510:1511   */\n      0x00\n        /* \"#utility.yul\":1535:1588   */\n      tag_104\n        /* \"#utility.yul\":1580:1587   */\n      dup5\n        /* \"#utility.yul\":1571:1577   */\n      dup3\n        /* \"#utility.yul\":1560:1569   */\n      dup6\n        /* \"#utility.yul\":1556:1578   */\n      add\n        /* \"#utility.yul\":1535:1588   */\n      tag_71\n      jump\t// in\n    tag_104:\n        /* \"#utility.yul\":1525:1588   */\n      swap2\n      pop\n        /* \"#utility.yul\":1481:1598   */\n      pop\n        /* \"#utility.yul\":1276:1605   */\n      swap3\n      swap2\n      pop\n      pop\n      jump\t// out\n        /* \"#utility.yul\":1611:1733   */\n    tag_72:\n        /* \"#utility.yul\":1684:1708   */\n      tag_106\n        /* \"#utility.yul\":1702:1707   */\n      dup2\n        /* \"#utility.yul\":1684:1708   */\n      tag_63\n      jump\t// in\n    tag_106:\n        /* \"#utility.yul\":1677:1682   */\n      dup2\n        /* \"#utility.yul\":1674:1709   */\n      eq\n        /* \"#utility.yul\":1664:1727   */\n      tag_107\n      jumpi\n        /* \"#utility.yul\":1723:1724   */\n      0x00\n        /* \"#utility.yul\":1720:1721   */\n      dup1\n        /* \"#utility.yul\":1713:1725   */\n      revert\n        /* \"#utility.yul\":1664:1727   */\n    tag_107:\n        /* \"#utility.yul\":1611:1733   */\n      pop\n      jump\t// out\n        /* \"#utility.yul\":1739:1878   */\n    tag_73:\n        /* \"#utility.yul\":1785:1790   */\n      0x00\n        /* \"#utility.yul\":1823:1829   */\n      dup2\n        /* \"#utility.yul\":1810:1830   */\n      calldataload\n        /* \"#utility.yul\":1801:1830   */\n      swap1\n      pop\n        /* \"#utility.yul\":1839:1872   */\n      tag_109\n        /* \"#utility.yul\":1866:1871   */\n      dup2\n        /* \"#utility.yul\":1839:1872   */\n      tag_72\n      jump\t// in\n    tag_109:\n        /* \"#utility.yul\":1739:1878   */\n      swap3\n      swap2\n      pop\n      pop\n      jump\t// out\n        /* \"#utility.yul\":1884:2213   */\n    tag_26:\n        /* \"#utility.yul\":1943:1949   */\n      0x00\n        /* \"#utility.yul\":1992:1994   */\n      0x20\n        /* \"#utility.yul\":1980:1989   */\n      dup3\n        /* \"#utility.yul\":1971:1978   */\n      dup5\n        /* \"#utility.yul\":1967:1990   */\n      sub\n        /* \"#utility.yul\":1963:1995   */\n      slt\n        /* \"#utility.yul\":1960:2079   */\n      iszero\n      tag_111\n      jumpi\n        /* \"#utility.yul\":1998:2077   */\n      tag_112\n      tag_66\n      jump\t// in\n    tag_112:\n        /* \"#utility.yul\":1960:2079   */\n    tag_111:\n        /* \"#utility.yul\":2118:2119   */\n      0x00\n        /* \"#utility.yul\":2143:2196   */\n      tag_113\n        /* \"#utility.yul\":2188:2195   */\n      dup5\n        /* \"#utility.yul\":2179:2185   */\n      dup3\n        /* \"#utility.yul\":2168:2177   */\n      dup6\n        /* \"#utility.yul\":2164:2186   */\n      add\n        /* \"#utility.yul\":2143:2196   */\n      tag_73\n      jump\t// in\n    tag_113:\n        /* \"#utility.yul\":2133:2196   */\n      swap2\n      pop\n        /* \"#utility.yul\":2089:2206   */\n      pop\n        /* \"#utility.yul\":1884:2213   */\n      swap3\n      swap2\n      pop\n      pop\n      jump\t// out\n        /* \"#utility.yul\":2219:2337   */\n    tag_74:\n        /* \"#utility.yul\":2306:2330   */\n      tag_115\n        /* \"#utility.yul\":2324:2329   */\n      dup2\n        /* \"#utility.yul\":2306:2330   */\n      tag_69\n      jump\t// in\n    tag_115:\n        /* \"#utility.yul\":2301:2304   */\n      dup3\n        /* \"#utility.yul\":2294:2331   */\n      mstore\n        /* \"#utility.yul\":2219:2337   */\n      pop\n      pop\n      jump\t// out\n        /* \"#utility.yul\":2343:2565   */\n    tag_29:\n        /* \"#utility.yul\":2436:2440   */\n      0x00\n        /* \"#utility.yul\":2474:2476   */\n      0x20\n        /* \"#utility.yul\":2463:2472   */\n      dup3\n        /* \"#utility.yul\":2459:2477   */\n      add\n        /* \"#utility.yul\":2451:2477   */\n      swap1\n      pop\n        /* \"#utility.yul\":2487:2558   */\n      tag_117\n        /* \"#utility.yul\":2555:2556   */\n      0x00\n        /* \"#utility.yul\":2544:2553   */\n      dup4\n        /* \"#utility.yul\":2540:2557   */\n      add\n        /* \"#utility.yul\":2531:2537   */\n      dup5\n        /* \"#utility.yul\":2487:2558   */\n      tag_74\n      jump\t// in\n    tag_117:\n        /* \"#utility.yul\":2343:2565   */\n      swap3\n      swap2\n      pop\n      pop\n      jump\t// out\n        /* \"#utility.yul\":2571:2751   */\n    tag_36:\n        /* \"#utility.yul\":2619:2696   */\n      0x4e487b7100000000000000000000000000000000000000000000000000000000\n        /* \"#utility.yul\":2616:2617   */\n      0x00\n        /* \"#utility.yul\":2609:2697   */\n      mstore\n        /* \"#utility.yul\":2716:2720   */\n      0x32\n        /* \"#utility.yul\":2713:2714   */\n      0x04\n        /* \"#utility.yul\":2706:2721   */\n      mstore\n        /* \"#utility.yul\":2740:2744   */\n      0x24\n        /* \"#utility.yul\":2737:2738   */\n      0x00\n        /* \"#utility.yul\":2730:2745   */\n      revert\n        /* \"#utility.yul\":2757:2937   */\n    tag_75:\n        /* \"#utility.yul\":2805:2882   */\n      0x4e487b7100000000000000000000000000000000000000000000000000000000\n        /* \"#utility.yul\":2802:2803   */\n      0x00\n        /* \"#utility.yul\":2795:2883   */\n      mstore\n        /* \"#utility.yul\":2902:2906   */\n      0x11\n        /* \"#utility.yul\":2899:2900   */\n      0x04\n        /* \"#utility.yul\":2892:2907   */\n      mstore\n        /* \"#utility.yul\":2926:2930   */\n      0x24\n        /* \"#utility.yul\":2923:2924   */\n      0x00\n        /* \"#utility.yul\":2916:2931   */\n      revert\n        /* \"#utility.yul\":2943:3176   */\n    tag_39:\n        /* \"#utility.yul\":2982:2985   */\n      0x00\n        /* \"#utility.yul\":3005:3029   */\n      tag_121\n        /* \"#utility.yul\":3023:3028   */\n      dup3\n        /* \"#utility.yul\":3005:3029   */\n      tag_63\n      jump\t// in\n    tag_121:\n        /* \"#utility.yul\":2996:3029   */\n      swap2\n      pop\n        /* \"#utility.yul\":3051:3117   */\n      0xffffffffffffffffffffffffffffffffffffffffffffffffffffffffffffffff\n        /* \"#utility.yul\":3044:3049   */\n      dup3\n        /* \"#utility.yul\":3041:3118   */\n      eq\n        /* \"#utility.yul\":3038:3141   */\n      iszero\n      tag_122\n      jumpi\n        /* \"#utility.yul\":3121:3139   */\n      tag_123\n      tag_75\n      jump\t// in\n    tag_123:\n        /* \"#utility.yul\":3038:3141   */\n    tag_122:\n        /* \"#utility.yul\":3168:3169   */\n      0x01\n        /* \"#utility.yul\":3161:3166   */\n      dup3\n        /* \"#utility.yul\":3157:3170   */\n      add\n        /* \"#utility.yul\":3150:3170   */\n      swap1\n      pop\n        /* \"#utility.yul\":2943:3176   */\n      swap2\n      swap1\n      pop\n      jump\t// out\n        /* \"#utility.yul\":3182:3487   */\n    tag_45:\n        /* \"#utility.yul\":3222:3225   */\n      0x00\n        /* \"#utility.yul\":3241:3261   */\n      tag_125\n        /* \"#utility.yul\":3259:3260   */\n      dup3\n        /* \"#utility.yul\":3241:3261   */\n      tag_63\n      jump\t// in\n    tag_125:\n        /* \"#utility.yul\":3236:3261   */\n      swap2\n      pop\n        /* \"#utility.yul\":3275:3295   */\n      tag_126\n        /* \"#utility.yul\":3293:3294   */\n      dup4\n        /* \"#utility.yul\":3275:3295   */\n      tag_63\n      jump\t// in\n    tag_126:\n        /* \"#utility.yul\":3270:3295   */\n      swap3\n      pop\n        /* \"#utility.yul\":3429:3430   */\n      dup3\n        /* \"#utility.yul\":3361:3427   */\n      0xffffffffffffffffffffffffffffffffffffffffffffffffffffffffffffffff\n        /* \"#utility.yul\":3357:3431   */\n      sub\n        /* \"#utility.yul\":3354:3355   */\n      dup3\n        /* \"#utility.yul\":3351:3432   */\n      gt\n        /* \"#utility.yul\":3348:3455   */\n      iszero\n      tag_127\n      jumpi\n        /* \"#utility.yul\":3435:3453   */\n      tag_128\n      tag_75\n      jump\t// in\n    tag_128:\n        /* \"#utility.yul\":3348:3455   */\n    tag_127:\n        /* \"#utility.yul\":3479:3480   */\n      dup3\n        /* \"#utility.yul\":3476:3477   */\n      dup3\n        /* \"#utility.yul\":3472:3481   */\n      add\n        /* \"#utility.yul\":3465:3481   */\n      swap1\n      pop\n        /* \"#utility.yul\":3182:3487   */\n      swap3\n      swap2\n      pop\n      pop\n      jump\t// out\n        /* \"#utility.yul\":3493:3841   */\n    tag_52:\n        /* \"#utility.yul\":3533:3540   */\n      0x00\n        /* \"#utility.yul\":3556:3576   */\n      tag_130\n        /* \"#utility.yul\":3574:3575   */\n      dup3\n        /* \"#utility.yul\":3556:3576   */\n      tag_63\n      jump\t// in\n    tag_130:\n        /* \"#utility.yul\":3551:3576   */\n      swap2\n      pop\n        /* \"#utility.yul\":3590:3610   */\n      tag_131\n        /* \"#utility.yul\":3608:3609   */\n      dup4\n        /* \"#utility.yul\":3590:3610   */\n      tag_63\n      jump\t// in\n    tag_131:\n        /* \"#utility.yul\":3585:3610   */\n      swap3\n      pop\n        /* \"#utility.yul\":3778:3779   */\n      dup2\n        /* \"#utility.yul\":3710:3776   */\n      0xffffffffffffffffffffffffffffffffffffffffffffffffffffffffffffffff\n        /* \"#utility.yul\":3706:3780   */\n      div\n        /* \"#utility.yul\":3703:3704   */\n      dup4\n        /* \"#utility.yul\":3700:3781   */\n      gt\n        /* \"#utility.yul\":3695:3696   */\n      dup3\n        /* \"#utility.yul\":3688:3697   */\n      iszero\n        /* \"#utility.yul\":3681:3698   */\n      iszero\n        /* \"#utility.yul\":3677:3782   */\n      and\n        /* \"#utility.yul\":3674:3805   */\n      iszero\n      tag_132\n      jumpi\n        /* \"#utility.yul\":3785:3803   */\n      tag_133\n      tag_75\n      jump\t// in\n    tag_133:\n        /* \"#utility.yul\":3674:3805   */\n    tag_132:\n        /* \"#utility.yul\":3833:3834   */\n      dup3\n        /* \"#utility.yul\":3830:3831   */\n      dup3\n        /* \"#utility.yul\":3826:3835   */\n      mul\n        /* \"#utility.yul\":3815:3835   */\n      swap1\n      pop\n        /* \"#utility.yul\":3493:3841   */\n      swap3\n      swap2\n      pop\n      pop\n      jump\t// out\n        /* \"#utility.yul\":3847:4027   */\n    tag_76:\n        /* \"#utility.yul\":3895:3972   */\n      0x4e487b7100000000000000000000000000000000000000000000000000000000\n        /* \"#utility.yul\":3892:3893   */\n      0x00\n        /* \"#utility.yul\":3885:3973   */\n      mstore\n        /* \"#utility.yul\":3992:3996   */\n      0x12\n        /* \"#utility.yul\":3989:3990   */\n      0x04\n        /* \"#utility.yul\":3982:3997   */\n      mstore\n        /* \"#utility.yul\":4016:4020   */\n      0x24\n        /* \"#utility.yul\":4013:4014   */\n      0x00\n        /* \"#utility.yul\":4006:4021   */\n      revert\n        /* \"#utility.yul\":4033:4218   */\n    tag_54:\n        /* \"#utility.yul\":4073:4074   */\n      0x00\n        /* \"#utility.yul\":4090:4110   */\n      tag_136\n        /* \"#utility.yul\":4108:4109   */\n      dup3\n        /* \"#utility.yul\":4090:4110   */\n      tag_63\n      jump\t// in\n    tag_136:\n        /* \"#utility.yul\":4085:4110   */\n      swap2\n      pop\n        /* \"#utility.yul\":4124:4144   */\n      tag_137\n        /* \"#utility.yul\":4142:4143   */\n      dup4\n        /* \"#utility.yul\":4124:4144   */\n      tag_63\n      jump\t// in\n    tag_137:\n        /* \"#utility.yul\":4119:4144   */\n      swap3\n      pop\n        /* \"#utility.yul\":4163:4164   */\n      dup3\n        /* \"#utility.yul\":4153:4188   */\n      tag_138\n      jumpi\n        /* \"#utility.yul\":4168:4186   */\n      tag_139\n      tag_76\n      jump\t// in\n    tag_139:\n        /* \"#utility.yul\":4153:4188   */\n    tag_138:\n        /* \"#utility.yul\":4210:4211   */\n      dup3\n        /* \"#utility.yul\":4207:4208   */\n      dup3\n        /* \"#utility.yul\":4203:4212   */\n      div\n        /* \"#utility.yul\":4198:4212   */\n      swap1\n      pop\n        /* \"#utility.yul\":4033:4218   */\n      swap3\n      swap2\n      pop\n      pop\n      jump\t// out\n        /* \"#utility.yul\":4224:4329   */\n    tag_77:\n        /* \"#utility.yul\":4260:4267   */\n      0x00\n        /* \"#utility.yul\":4300:4322   */\n      0xffffffffffffffffffff\n        /* \"#utility.yul\":4293:4298   */\n      dup3\n        /* \"#utility.yul\":4289:4323   */\n      and\n        /* \"#utility.yul\":4278:4323   */\n      swap1\n      pop\n        /* \"#utility.yul\":4224:4329   */\n      swap2\n      swap1\n      pop\n      jump\t// out\n        /* \"#utility.yul\":4335:4455   */\n    tag_78:\n        /* \"#utility.yul\":4407:4430   */\n      tag_142\n        /* \"#utility.yul\":4424:4429   */\n      dup2\n        /* \"#utility.yul\":4407:4430   */\n      tag_77\n      jump\t// in\n    tag_142:\n        /* \"#utility.yul\":4400:4405   */\n      dup2\n        /* \"#utility.yul\":4397:4431   */\n      eq\n        /* \"#utility.yul\":4387:4449   */\n      tag_143\n      jumpi\n        /* \"#utility.yul\":4445:4446   */\n      0x00\n        /* \"#utility.yul\":4442:4443   */\n      dup1\n        /* \"#utility.yul\":4435:4447   */\n      revert\n        /* \"#utility.yul\":4387:4449   */\n    tag_143:\n        /* \"#utility.yul\":4335:4455   */\n      pop\n      jump\t// out\n        /* \"#utility.yul\":4461:4602   */\n    tag_79:\n        /* \"#utility.yul\":4517:4522   */\n      0x00\n        /* \"#utility.yul\":4548:4554   */\n      dup2\n        /* \"#utility.yul\":4542:4555   */\n      mload\n        /* \"#utility.yul\":4533:4555   */\n      swap1\n      pop\n        /* \"#utility.yul\":4564:4596   */\n      tag_145\n        /* \"#utility.yul\":4590:4595   */\n      dup2\n        /* \"#utility.yul\":4564:4596   */\n      tag_78\n      jump\t// in\n    tag_145:\n        /* \"#utility.yul\":4461:4602   */\n      swap3\n      swap2\n      pop\n      pop\n      jump\t// out\n        /* \"#utility.yul\":4608:4684   */\n    tag_80:\n        /* \"#utility.yul\":4644:4651   */\n      0x00\n        /* \"#utility.yul\":4673:4678   */\n      dup2\n        /* \"#utility.yul\":4662:4678   */\n      swap1\n      pop\n        /* \"#utility.yul\":4608:4684   */\n      swap2\n      swap1\n      pop\n      jump\t// out\n        /* \"#utility.yul\":4690:4810   */\n    tag_81:\n        /* \"#utility.yul\":4762:4785   */\n      tag_148\n        /* \"#utility.yul\":4779:4784   */\n      dup2\n        /* \"#utility.yul\":4762:4785   */\n      tag_80\n      jump\t// in\n    tag_148:\n        /* \"#utility.yul\":4755:4760   */\n      dup2\n        /* \"#utility.yul\":4752:4786   */\n      eq\n        /* \"#utility.yul\":4742:4804   */\n      tag_149\n      jumpi\n        /* \"#utility.yul\":4800:4801   */\n      0x00\n        /* \"#utility.yul\":4797:4798   */\n      dup1\n        /* \"#utility.yul\":4790:4802   */\n      revert\n        /* \"#utility.yul\":4742:4804   */\n    tag_149:\n        /* \"#utility.yul\":4690:4810   */\n      pop\n      jump\t// out\n        /* \"#utility.yul\":4816:4957   */\n    tag_82:\n        /* \"#utility.yul\":4872:4877   */\n      0x00\n        /* \"#utility.yul\":4903:4909   */\n      dup2\n        /* \"#utility.yul\":4897:4910   */\n      mload\n        /* \"#utility.yul\":4888:4910   */\n      swap1\n      pop\n        /* \"#utility.yul\":4919:4951   */\n      tag_151\n        /* \"#utility.yul\":4945:4950   */\n      dup2\n        /* \"#utility.yul\":4919:4951   */\n      tag_81\n      jump\t// in\n    tag_151:\n        /* \"#utility.yul\":4816:4957   */\n      swap3\n      swap2\n      pop\n      pop\n      jump\t// out\n        /* \"#utility.yul\":4963:5106   */\n    tag_83:\n        /* \"#utility.yul\":5020:5025   */\n      0x00\n        /* \"#utility.yul\":5051:5057   */\n      dup2\n        /* \"#utility.yul\":5045:5058   */\n      mload\n        /* \"#utility.yul\":5036:5058   */\n      swap1\n      pop\n        /* \"#utility.yul\":5067:5100   */\n      tag_153\n        /* \"#utility.yul\":5094:5099   */\n      dup2\n        /* \"#utility.yul\":5067:5100   */\n      tag_72\n      jump\t// in\n    tag_153:\n        /* \"#utility.yul\":4963:5106   */\n      swap3\n      swap2\n      pop\n      pop\n      jump\t// out\n        /* \"#utility.yul\":5112:6083   */\n    tag_60:\n        /* \"#utility.yul\":5215:5221   */\n      0x00\n        /* \"#utility.yul\":5223:5229   */\n      dup1\n        /* \"#utility.yul\":5231:5237   */\n      0x00\n        /* \"#utility.yul\":5239:5245   */\n      dup1\n        /* \"#utility.yul\":5247:5253   */\n      0x00\n        /* \"#utility.yul\":5296:5299   */\n      0xa0\n        /* \"#utility.yul\":5284:5293   */\n      dup7\n        /* \"#utility.yul\":5275:5282   */\n      dup9\n        /* \"#utility.yul\":5271:5294   */\n      sub\n        /* \"#utility.yul\":5267:5300   */\n      slt\n        /* \"#utility.yul\":5264:5384   */\n      iszero\n      tag_155\n      jumpi\n        /* \"#utility.yul\":5303:5382   */\n      tag_156\n      tag_66\n      jump\t// in\n    tag_156:\n        /* \"#utility.yul\":5264:5384   */\n    tag_155:\n        /* \"#utility.yul\":5423:5424   */\n      0x00\n        /* \"#utility.yul\":5448:5511   */\n      tag_157\n        /* \"#utility.yul\":5503:5510   */\n      dup9\n        /* \"#utility.yul\":5494:5500   */\n      dup3\n        /* \"#utility.yul\":5483:5492   */\n      dup10\n        /* \"#utility.yul\":5479:5501   */\n      add\n        /* \"#utility.yul\":5448:5511   */\n      tag_79\n      jump\t// in\n    tag_157:\n        /* \"#utility.yul\":5438:5511   */\n      swap6\n      pop\n        /* \"#utility.yul\":5394:5521   */\n      pop\n        /* \"#utility.yul\":5560:5562   */\n      0x20\n        /* \"#utility.yul\":5586:5649   */\n      tag_158\n        /* \"#utility.yul\":5641:5648   */\n      dup9\n        /* \"#utility.yul\":5632:5638   */\n      dup3\n        /* \"#utility.yul\":5621:5630   */\n      dup10\n        /* \"#utility.yul\":5617:5639   */\n      add\n        /* \"#utility.yul\":5586:5649   */\n      tag_82\n      jump\t// in\n    tag_158:\n        /* \"#utility.yul\":5576:5649   */\n      swap5\n      pop\n        /* \"#utility.yul\":5531:5659   */\n      pop\n        /* \"#utility.yul\":5698:5700   */\n      0x40\n        /* \"#utility.yul\":5724:5788   */\n      tag_159\n        /* \"#utility.yul\":5780:5787   */\n      dup9\n        /* \"#utility.yul\":5771:5777   */\n      dup3\n        /* \"#utility.yul\":5760:5769   */\n      dup10\n        /* \"#utility.yul\":5756:5778   */\n      add\n        /* \"#utility.yul\":5724:5788   */\n      tag_83\n      jump\t// in\n    tag_159:\n        /* \"#utility.yul\":5714:5788   */\n      swap4\n      pop\n        /* \"#utility.yul\":5669:5798   */\n      pop\n        /* \"#utility.yul\":5837:5839   */\n      0x60\n        /* \"#utility.yul\":5863:5927   */\n      tag_160\n        /* \"#utility.yul\":5919:5926   */\n      dup9\n        /* \"#utility.yul\":5910:5916   */\n      dup3\n        /* \"#utility.yul\":5899:5908   */\n      dup10\n        /* \"#utility.yul\":5895:5917   */\n      add\n        /* \"#utility.yul\":5863:5927   */\n      tag_83\n      jump\t// in\n    tag_160:\n        /* \"#utility.yul\":5853:5927   */\n      swap3\n      pop\n        /* \"#utility.yul\":5808:5937   */\n      pop\n        /* \"#utility.yul\":5976:5979   */\n      0x80\n        /* \"#utility.yul\":6003:6066   */\n      tag_161\n        /* \"#utility.yul\":6058:6065   */\n      dup9\n        /* \"#utility.yul\":6049:6055   */\n      dup3\n        /* \"#utility.yul\":6038:6047   */\n      dup10\n        /* \"#utility.yul\":6034:6056   */\n      add\n        /* \"#utility.yul\":6003:6066   */\n      tag_79\n      jump\t// in\n    tag_161:\n        /* \"#utility.yul\":5993:6066   */\n      swap2\n      pop\n        /* \"#utility.yul\":5947:6076   */\n      pop\n        /* \"#utility.yul\":5112:6083   */\n      swap3\n      swap6\n      pop\n      swap3\n      swap6\n      swap1\n      swap4\n      pop\n      jump\t// out\n        /* \"#utility.yul\":6089:7080   */\n    tag_62:\n        /* \"#utility.yul\":6128:6135   */\n      0x00\n        /* \"#utility.yul\":6151:6170   */\n      tag_163\n        /* \"#utility.yul\":6168:6169   */\n      dup3\n        /* \"#utility.yul\":6151:6170   */\n      tag_80\n      jump\t// in\n    tag_163:\n        /* \"#utility.yul\":6146:6170   */\n      swap2\n      pop\n        /* \"#utility.yul\":6184:6203   */\n      tag_164\n        /* \"#utility.yul\":6201:6202   */\n      dup4\n        /* \"#utility.yul\":6184:6203   */\n      tag_80\n      jump\t// in\n    tag_164:\n        /* \"#utility.yul\":6179:6203   */\n      swap3\n      pop\n        /* \"#utility.yul\":6385:6386   */\n      dup3\n        /* \"#utility.yul\":6317:6383   */\n      0x7fffffffffffffffffffffffffffffffffffffffffffffffffffffffffffffff\n        /* \"#utility.yul\":6313:6387   */\n      div\n        /* \"#utility.yul\":6310:6311   */\n      dup3\n        /* \"#utility.yul\":6307:6388   */\n      gt\n        /* \"#utility.yul\":6302:6303   */\n      0x00\n        /* \"#utility.yul\":6299:6300   */\n      dup5\n        /* \"#utility.yul\":6295:6304   */\n      sgt\n        /* \"#utility.yul\":6291:6292   */\n      0x00\n        /* \"#utility.yul\":6288:6289   */\n      dup5\n        /* \"#utility.yul\":6284:6293   */\n      sgt\n        /* \"#utility.yul\":6280:6305   */\n      and\n        /* \"#utility.yul\":6276:6389   */\n      and\n        /* \"#utility.yul\":6273:6412   */\n      iszero\n      tag_165\n      jumpi\n        /* \"#utility.yul\":6392:6410   */\n      tag_166\n      tag_75\n      jump\t// in\n    tag_166:\n        /* \"#utility.yul\":6273:6412   */\n    tag_165:\n        /* \"#utility.yul\":6596:6597   */\n      dup2\n        /* \"#utility.yul\":6528:6594   */\n      0x8000000000000000000000000000000000000000000000000000000000000000\n        /* \"#utility.yul\":6523:6598   */\n      sdiv\n        /* \"#utility.yul\":6520:6521   */\n      dup4\n        /* \"#utility.yul\":6516:6599   */\n      slt\n        /* \"#utility.yul\":6511:6512   */\n      0x00\n        /* \"#utility.yul\":6508:6509   */\n      dup5\n        /* \"#utility.yul\":6504:6513   */\n      slt\n        /* \"#utility.yul\":6500:6501   */\n      0x00\n        /* \"#utility.yul\":6497:6498   */\n      dup5\n        /* \"#utility.yul\":6493:6502   */\n      sgt\n        /* \"#utility.yul\":6489:6514   */\n      and\n        /* \"#utility.yul\":6485:6600   */\n      and\n        /* \"#utility.yul\":6482:6623   */\n      iszero\n      tag_167\n      jumpi\n        /* \"#utility.yul\":6603:6621   */\n      tag_168\n      tag_75\n      jump\t// in\n    tag_168:\n        /* \"#utility.yul\":6482:6623   */\n    tag_167:\n        /* \"#utility.yul\":6807:6808   */\n      dup3\n        /* \"#utility.yul\":6739:6805   */\n      0x8000000000000000000000000000000000000000000000000000000000000000\n        /* \"#utility.yul\":6734:6809   */\n      sdiv\n        /* \"#utility.yul\":6731:6732   */\n      dup3\n        /* \"#utility.yul\":6727:6810   */\n      slt\n        /* \"#utility.yul\":6722:6723   */\n      0x00\n        /* \"#utility.yul\":6719:6720   */\n      dup5\n        /* \"#utility.yul\":6715:6724   */\n      sgt\n        /* \"#utility.yul\":6711:6712   */\n      0x00\n        /* \"#utility.yul\":6708:6709   */\n      dup5\n        /* \"#utility.yul\":6704:6713   */\n      slt\n        /* \"#utility.yul\":6700:6725   */\n      and\n        /* \"#utility.yul\":6696:6811   */\n      and\n        /* \"#utility.yul\":6693:6834   */\n      iszero\n      tag_169\n      jumpi\n        /* \"#utility.yul\":6814:6832   */\n      tag_170\n      tag_75\n      jump\t// in\n    tag_170:\n        /* \"#utility.yul\":6693:6834   */\n    tag_169:\n        /* \"#utility.yul\":7017:7018   */\n      dup3\n        /* \"#utility.yul\":6949:7015   */\n      0x7fffffffffffffffffffffffffffffffffffffffffffffffffffffffffffffff\n        /* \"#utility.yul\":6944:7019   */\n      sdiv\n        /* \"#utility.yul\":6941:6942   */\n      dup3\n        /* \"#utility.yul\":6937:7020   */\n      slt\n        /* \"#utility.yul\":6932:6933   */\n      0x00\n        /* \"#utility.yul\":6929:6930   */\n      dup5\n        /* \"#utility.yul\":6925:6934   */\n      slt\n        /* \"#utility.yul\":6921:6922   */\n      0x00\n        /* \"#utility.yul\":6918:6919   */\n      dup5\n        /* \"#utility.yul\":6914:6923   */\n      slt\n        /* \"#utility.yul\":6910:6935   */\n      and\n        /* \"#utility.yul\":6906:7021   */\n      and\n        /* \"#utility.yul\":6903:7044   */\n      iszero\n      tag_171\n      jumpi\n        /* \"#utility.yul\":7024:7042   */\n      tag_172\n      tag_75\n      jump\t// in\n    tag_172:\n        /* \"#utility.yul\":6903:7044   */\n    tag_171:\n        /* \"#utility.yul\":7072:7073   */\n      dup3\n        /* \"#utility.yul\":7069:7070   */\n      dup3\n        /* \"#utility.yul\":7065:7074   */\n      mul\n        /* \"#utility.yul\":7054:7074   */\n      swap1\n      pop\n        /* \"#utility.yul\":6089:7080   */\n      swap3\n      swap2\n      pop\n      pop\n      jump\t// out\n\n    auxdata: 0xa264697066735822122099aeb0af8faa91d8718272618fb1b8b1bb812527680677152c537d845cf9a93c64736f6c63430008080033\n}\n",
				"bytecode": {
					"linkReferences": {},
					"object": "60806040526802b5e3af16b188000060005534801561001d57600080fd5b5061092c8061002d6000396000f3fe60806040526004361061004a5760003560e01c8063098de8201461004f5780633ccfd60b1461007a5780633e47d6f314610091578063b60d4288146100ce578063dc0d3dff146100d8575b600080fd5b34801561005b57600080fd5b50610064610115565b60405161007191906103f2565b60405180910390f35b34801561008657600080fd5b5061008f61011b565b005b34801561009d57600080fd5b506100b860048036038101906100b39190610470565b6101cb565b6040516100c591906103f2565b60405180910390f35b6100d66101e3565b005b3480156100e457600080fd5b506100ff60048036038101906100fa91906104c9565b6102a8565b60405161010c9190610505565b60405180910390f35b60005481565b60005b6001805490508110156101c85760006001828154811061014157610140610520565b5b9060005260206000200160009054906101000a900473ffffffffffffffffffffffffffffffffffffffff1690506000600260008373ffffffffffffffffffffffffffffffffffffffff1673ffffffffffffffffffffffffffffffffffffffff168152602001908152602001600020819055505080806101bf9061057e565b9150905061011e565b50565b60026020528060005260406000206000915090505481565b6101ec346102e7565b506001339080600181540180825580915050600190039060005260206000200160009091909190916101000a81548173ffffffffffffffffffffffffffffffffffffffff021916908373ffffffffffffffffffffffffffffffffffffffff16021790555034600260003373ffffffffffffffffffffffffffffffffffffffff1673ffffffffffffffffffffffffffffffffffffffff168152602001908152602001600020600082825461029f91906105c7565b92505081905550565b600181815481106102b857600080fd5b906000526020600020016000915054906101000a900473ffffffffffffffffffffffffffffffffffffffff1681565b6000806102f2610321565b90506000670de0b6b3a7640000848361030b919061061d565b61031591906106a6565b90508092505050919050565b600080738a753747a1fa494ec906ce90e9f37563a8af630e905060008173ffffffffffffffffffffffffffffffffffffffff1663feaf968c6040518163ffffffff1660e01b815260040160a06040518083038186803b15801561038357600080fd5b505afa158015610397573d6000803e3d6000fd5b505050506040513d601f19601f820116820180604052508101906103bb9190610764565b5050509150506402540be400816103d291906107df565b9250505090565b6000819050919050565b6103ec816103d9565b82525050565b600060208201905061040760008301846103e3565b92915050565b600080fd5b600073ffffffffffffffffffffffffffffffffffffffff82169050919050565b600061043d82610412565b9050919050565b61044d81610432565b811461045857600080fd5b50565b60008135905061046a81610444565b92915050565b6000602082840312156104865761048561040d565b5b60006104948482850161045b565b91505092915050565b6104a6816103d9565b81146104b157600080fd5b50565b6000813590506104c38161049d565b92915050565b6000602082840312156104df576104de61040d565b5b60006104ed848285016104b4565b91505092915050565b6104ff81610432565b82525050565b600060208201905061051a60008301846104f6565b92915050565b7f4e487b7100000000000000000000000000000000000000000000000000000000600052603260045260246000fd5b7f4e487b7100000000000000000000000000000000000000000000000000000000600052601160045260246000fd5b6000610589826103d9565b91507fffffffffffffffffffffffffffffffffffffffffffffffffffffffffffffffff8214156105bc576105bb61054f565b5b600182019050919050565b60006105d2826103d9565b91506105dd836103d9565b9250827fffffffffffffffffffffffffffffffffffffffffffffffffffffffffffffffff038211156106125761061161054f565b5b828201905092915050565b6000610628826103d9565b9150610633836103d9565b9250817fffffffffffffffffffffffffffffffffffffffffffffffffffffffffffffffff048311821515161561066c5761066b61054f565b5b828202905092915050565b7f4e487b7100000000000000000000000000000000000000000000000000000000600052601260045260246000fd5b60006106b1826103d9565b91506106bc836103d9565b9250826106cc576106cb610677565b5b828204905092915050565b600069ffffffffffffffffffff82169050919050565b6106f6816106d7565b811461070157600080fd5b50565b600081519050610713816106ed565b92915050565b6000819050919050565b61072c81610719565b811461073757600080fd5b50565b60008151905061074981610723565b92915050565b60008151905061075e8161049d565b92915050565b600080600080600060a086880312156107805761077f61040d565b5b600061078e88828901610704565b955050602061079f8882890161073a565b94505060406107b08882890161074f565b93505060606107c18882890161074f565b92505060806107d288828901610704565b9150509295509295909350565b60006107ea82610719565b91506107f583610719565b9250827f7fffffffffffffffffffffffffffffffffffffffffffffffffffffffffffffff04821160008413600084131616156108345761083361054f565b5b817f800000000000000000000000000000000000000000000000000000000000000005831260008412600084131616156108715761087061054f565b5b827f800000000000000000000000000000000000000000000000000000000000000005821260008413600084121616156108ae576108ad61054f565b5b827f7fffffffffffffffffffffffffffffffffffffffffffffffffffffffffffffff05821260008412600084121616156108eb576108ea61054f565b5b82820290509291505056fea264697066735822122099aeb0af8faa91d8718272618fb1b8b1bb812527680677152c537d845cf9a93c64736f6c63430008080033",
					"opcodes": "PUSH1 0x80 PUSH1 0x40 MSTORE PUSH9 0x2B5E3AF16B1880000 PUSH1 0x0 SSTORE CALLVALUE DUP1 ISZERO PUSH2 0x1D JUMPI PUSH1 0x0 DUP1 REVERT JUMPDEST POP PUSH2 0x92C DUP1 PUSH2 0x2D PUSH1 0x0 CODECOPY PUSH1 0x0 RETURN INVALID PUSH1 0x80 PUSH1 0x40 MSTORE PUSH1 0x4 CALLDATASIZE LT PUSH2 0x4A JUMPI PUSH1 0x0 CALLDATALOAD PUSH1 0xE0 SHR DUP1 PUSH4 0x98DE820 EQ PUSH2 0x4F JUMPI DUP1 PUSH4 0x3CCFD60B EQ PUSH2 0x7A JUMPI DUP1 PUSH4 0x3E47D6F3 EQ PUSH2 0x91 JUMPI DUP1 PUSH4 0xB60D4288 EQ PUSH2 0xCE JUMPI DUP1 PUSH4 0xDC0D3DFF EQ PUSH2 0xD8 JUMPI JUMPDEST PUSH1 0x0 DUP1 REVERT JUMPDEST CALLVALUE DUP1 ISZERO PUSH2 0x5B JUMPI PUSH1 0x0 DUP1 REVERT JUMPDEST POP PUSH2 0x64 PUSH2 0x115 JUMP JUMPDEST PUSH1 0x40 MLOAD PUSH2 0x71 SWAP2 SWAP1 PUSH2 0x3F2 JUMP JUMPDEST PUSH1 0x40 MLOAD DUP1 SWAP2 SUB SWAP1 RETURN JUMPDEST CALLVALUE DUP1 ISZERO PUSH2 0x86 JUMPI PUSH1 0x0 DUP1 REVERT JUMPDEST POP PUSH2 0x8F PUSH2 0x11B JUMP JUMPDEST STOP JUMPDEST CALLVALUE DUP1 ISZERO PUSH2 0x9D JUMPI PUSH1 0x0 DUP1 REVERT JUMPDEST POP PUSH2 0xB8 PUSH1 0x4 DUP1 CALLDATASIZE SUB DUP2 ADD SWAP1 PUSH2 0xB3 SWAP2 SWAP1 PUSH2 0x470 JUMP JUMPDEST PUSH2 0x1CB JUMP JUMPDEST PUSH1 0x40 MLOAD PUSH2 0xC5 SWAP2 SWAP1 PUSH2 0x3F2 JUMP JUMPDEST PUSH1 0x40 MLOAD DUP1 SWAP2 SUB SWAP1 RETURN JUMPDEST PUSH2 0xD6 PUSH2 0x1E3 JUMP JUMPDEST STOP JUMPDEST CALLVALUE DUP1 ISZERO PUSH2 0xE4 JUMPI PUSH1 0x0 DUP1 REVERT JUMPDEST POP PUSH2 0xFF PUSH1 0x4 DUP1 CALLDATASIZE SUB DUP2 ADD SWAP1 PUSH2 0xFA SWAP2 SWAP1 PUSH2 0x4C9 JUMP JUMPDEST PUSH2 0x2A8 JUMP JUMPDEST PUSH1 0x40 MLOAD PUSH2 0x10C SWAP2 SWAP1 PUSH2 0x505 JUMP JUMPDEST PUSH1 0x40 MLOAD DUP1 SWAP2 SUB SWAP1 RETURN JUMPDEST PUSH1 0x0 SLOAD DUP2 JUMP JUMPDEST PUSH1 0x0 JUMPDEST PUSH1 0x1 DUP1 SLOAD SWAP1 POP DUP2 LT ISZERO PUSH2 0x1C8 JUMPI PUSH1 0x0 PUSH1 0x1 DUP3 DUP2 SLOAD DUP2 LT PUSH2 0x141 JUMPI PUSH2 0x140 PUSH2 0x520 JUMP JUMPDEST JUMPDEST SWAP1 PUSH1 0x0 MSTORE PUSH1 0x20 PUSH1 0x0 KECCAK256 ADD PUSH1 0x0 SWAP1 SLOAD SWAP1 PUSH2 0x100 EXP SWAP1 DIV PUSH20 0xFFFFFFFFFFFFFFFFFFFFFFFFFFFFFFFFFFFFFFFF AND SWAP1 POP PUSH1 0x0 PUSH1 0x2 PUSH1 0x0 DUP4 PUSH20 0xFFFFFFFFFFFFFFFFFFFFFFFFFFFFFFFFFFFFFFFF AND PUSH20 0xFFFFFFFFFFFFFFFFFFFFFFFFFFFFFFFFFFFFFFFF AND DUP2 MSTORE PUSH1 0x20 ADD SWAP1 DUP2 MSTORE PUSH1 0x20 ADD PUSH1 0x0 KECCAK256 DUP2 SWAP1 SSTORE POP POP DUP1 DUP1 PUSH2 0x1BF SWAP1 PUSH2 0x57E JUMP JUMPDEST SWAP2 POP SWAP1 POP PUSH2 0x11E JUMP JUMPDEST POP JUMP JUMPDEST PUSH1 0x2 PUSH1 0x20 MSTORE DUP1 PUSH1 0x0 MSTORE PUSH1 0x40 PUSH1 0x0 KECCAK256 PUSH1 0x0 SWAP2 POP SWAP1 POP SLOAD DUP2 JUMP JUMPDEST PUSH2 0x1EC CALLVALUE PUSH2 0x2E7 JUMP JUMPDEST POP PUSH1 0x1 CALLER SWAP1 DUP1 PUSH1 0x1 DUP2 SLOAD ADD DUP1 DUP3 SSTORE DUP1 SWAP2 POP POP PUSH1 0x1 SWAP1 SUB SWAP1 PUSH1 0x0 MSTORE PUSH1 0x20 PUSH1 0x0 KECCAK256 ADD PUSH1 0x0 SWAP1 SWAP2 SWAP1 SWAP2 SWAP1 SWAP2 PUSH2 0x100 EXP DUP2 SLOAD DUP2 PUSH20 0xFFFFFFFFFFFFFFFFFFFFFFFFFFFFFFFFFFFFFFFF MUL NOT AND SWAP1 DUP4 PUSH20 0xFFFFFFFFFFFFFFFFFFFFFFFFFFFFFFFFFFFFFFFF AND MUL OR SWAP1 SSTORE POP CALLVALUE PUSH1 0x2 PUSH1 0x0 CALLER PUSH20 0xFFFFFFFFFFFFFFFFFFFFFFFFFFFFFFFFFFFFFFFF AND PUSH20 0xFFFFFFFFFFFFFFFFFFFFFFFFFFFFFFFFFFFFFFFF AND DUP2 MSTORE PUSH1 0x20 ADD SWAP1 DUP2 MSTORE PUSH1 0x20 ADD PUSH1 0x0 KECCAK256 PUSH1 0x0 DUP3 DUP3 SLOAD PUSH2 0x29F SWAP2 SWAP1 PUSH2 0x5C7 JUMP JUMPDEST SWAP3 POP POP DUP2 SWAP1 SSTORE POP JUMP JUMPDEST PUSH1 0x1 DUP2 DUP2 SLOAD DUP2 LT PUSH2 0x2B8 JUMPI PUSH1 0x0 DUP1 REVERT JUMPDEST SWAP1 PUSH1 0x0 MSTORE PUSH1 0x20 PUSH1 0x0 KECCAK256 ADD PUSH1 0x0 SWAP2 POP SLOAD SWAP1 PUSH2 0x100 EXP SWAP1 DIV PUSH20 0xFFFFFFFFFFFFFFFFFFFFFFFFFFFFFFFFFFFFFFFF AND DUP2 JUMP JUMPDEST PUSH1 0x0 DUP1 PUSH2 0x2F2 PUSH2 0x321 JUMP JUMPDEST SWAP1 POP PUSH1 0x0 PUSH8 0xDE0B6B3A7640000 DUP5 DUP4 PUSH2 0x30B SWAP2 SWAP1 PUSH2 0x61D JUMP JUMPDEST PUSH2 0x315 SWAP2 SWAP1 PUSH2 0x6A6 JUMP JUMPDEST SWAP1 POP DUP1 SWAP3 POP POP POP SWAP2 SWAP1 POP JUMP JUMPDEST PUSH1 0x0 DUP1 PUSH20 0x8A753747A1FA494EC906CE90E9F37563A8AF630E SWAP1 POP PUSH1 0x0 DUP2 PUSH20 0xFFFFFFFFFFFFFFFFFFFFFFFFFFFFFFFFFFFFFFFF AND PUSH4 0xFEAF968C PUSH1 0x40 MLOAD DUP2 PUSH4 0xFFFFFFFF AND PUSH1 0xE0 SHL DUP2 MSTORE PUSH1 0x4 ADD PUSH1 0xA0 PUSH1 0x40 MLOAD DUP1 DUP4 SUB DUP2 DUP7 DUP1 EXTCODESIZE ISZERO DUP1 ISZERO PUSH2 0x383 JUMPI PUSH1 0x0 DUP1 REVERT JUMPDEST POP GAS STATICCALL ISZERO DUP1 ISZERO PUSH2 0x397 JUMPI RETURNDATASIZE PUSH1 0x0 DUP1 RETURNDATACOPY RETURNDATASIZE PUSH1 0x0 REVERT JUMPDEST POP POP POP POP PUSH1 0x40 MLOAD RETURNDATASIZE PUSH1 0x1F NOT PUSH1 0x1F DUP3 ADD AND DUP3 ADD DUP1 PUSH1 0x40 MSTORE POP DUP2 ADD SWAP1 PUSH2 0x3BB SWAP2 SWAP1 PUSH2 0x764 JUMP JUMPDEST POP POP POP SWAP2 POP POP PUSH5 0x2540BE400 DUP2 PUSH2 0x3D2 SWAP2 SWAP1 PUSH2 0x7DF JUMP JUMPDEST SWAP3 POP POP POP SWAP1 JUMP JUMPDEST PUSH1 0x0 DUP2 SWAP1 POP SWAP2 SWAP1 POP JUMP JUMPDEST PUSH2 0x3EC DUP2 PUSH2 0x3D9 JUMP JUMPDEST DUP3 MSTORE POP POP JUMP JUMPDEST PUSH1 0x0 PUSH1 0x20 DUP3 ADD SWAP1 POP PUSH2 0x407 PUSH1 0x0 DUP4 ADD DUP5 PUSH2 0x3E3 JUMP JUMPDEST SWAP3 SWAP2 POP POP JUMP JUMPDEST PUSH1 0x0 DUP1 REVERT JUMPDEST PUSH1 0x0 PUSH20 0xFFFFFFFFFFFFFFFFFFFFFFFFFFFFFFFFFFFFFFFF DUP3 AND SWAP1 POP SWAP2 SWAP1 POP JUMP JUMPDEST PUSH1 0x0 PUSH2 0x43D DUP3 PUSH2 0x412 JUMP JUMPDEST SWAP1 POP SWAP2 SWAP1 POP JUMP JUMPDEST PUSH2 0x44D DUP2 PUSH2 0x432 JUMP JUMPDEST DUP2 EQ PUSH2 0x458 JUMPI PUSH1 0x0 DUP1 REVERT JUMPDEST POP JUMP JUMPDEST PUSH1 0x0 DUP2 CALLDATALOAD SWAP1 POP PUSH2 0x46A DUP2 PUSH2 0x444 JUMP JUMPDEST SWAP3 SWAP2 POP POP JUMP JUMPDEST PUSH1 0x0 PUSH1 0x20 DUP3 DUP5 SUB SLT ISZERO PUSH2 0x486 JUMPI PUSH2 0x485 PUSH2 0x40D JUMP JUMPDEST JUMPDEST PUSH1 0x0 PUSH2 0x494 DUP5 DUP3 DUP6 ADD PUSH2 0x45B JUMP JUMPDEST SWAP2 POP POP SWAP3 SWAP2 POP POP JUMP JUMPDEST PUSH2 0x4A6 DUP2 PUSH2 0x3D9 JUMP JUMPDEST DUP2 EQ PUSH2 0x4B1 JUMPI PUSH1 0x0 DUP1 REVERT JUMPDEST POP JUMP JUMPDEST PUSH1 0x0 DUP2 CALLDATALOAD SWAP1 POP PUSH2 0x4C3 DUP2 PUSH2 0x49D JUMP JUMPDEST SWAP3 SWAP2 POP POP JUMP JUMPDEST PUSH1 0x0 PUSH1 0x20 DUP3 DUP5 SUB SLT ISZERO PUSH2 0x4DF JUMPI PUSH2 0x4DE PUSH2 0x40D JUMP JUMPDEST JUMPDEST PUSH1 0x0 PUSH2 0x4ED DUP5 DUP3 DUP6 ADD PUSH2 0x4B4 JUMP JUMPDEST SWAP2 POP POP SWAP3 SWAP2 POP POP JUMP JUMPDEST PUSH2 0x4FF DUP2 PUSH2 0x432 JUMP JUMPDEST DUP3 MSTORE POP POP JUMP JUMPDEST PUSH1 0x0 PUSH1 0x20 DUP3 ADD SWAP1 POP PUSH2 0x51A PUSH1 0x0 DUP4 ADD DUP5 PUSH2 0x4F6 JUMP JUMPDEST SWAP3 SWAP2 POP POP JUMP JUMPDEST PUSH32 0x4E487B7100000000000000000000000000000000000000000000000000000000 PUSH1 0x0 MSTORE PUSH1 0x32 PUSH1 0x4 MSTORE PUSH1 0x24 PUSH1 0x0 REVERT JUMPDEST PUSH32 0x4E487B7100000000000000000000000000000000000000000000000000000000 PUSH1 0x0 MSTORE PUSH1 0x11 PUSH1 0x4 MSTORE PUSH1 0x24 PUSH1 0x0 REVERT JUMPDEST PUSH1 0x0 PUSH2 0x589 DUP3 PUSH2 0x3D9 JUMP JUMPDEST SWAP2 POP PUSH32 0xFFFFFFFFFFFFFFFFFFFFFFFFFFFFFFFFFFFFFFFFFFFFFFFFFFFFFFFFFFFFFFFF DUP3 EQ ISZERO PUSH2 0x5BC JUMPI PUSH2 0x5BB PUSH2 0x54F JUMP JUMPDEST JUMPDEST PUSH1 0x1 DUP3 ADD SWAP1 POP SWAP2 SWAP1 POP JUMP JUMPDEST PUSH1 0x0 PUSH2 0x5D2 DUP3 PUSH2 0x3D9 JUMP JUMPDEST SWAP2 POP PUSH2 0x5DD DUP4 PUSH2 0x3D9 JUMP JUMPDEST SWAP3 POP DUP3 PUSH32 0xFFFFFFFFFFFFFFFFFFFFFFFFFFFFFFFFFFFFFFFFFFFFFFFFFFFFFFFFFFFFFFFF SUB DUP3 GT ISZERO PUSH2 0x612 JUMPI PUSH2 0x611 PUSH2 0x54F JUMP JUMPDEST JUMPDEST DUP3 DUP3 ADD SWAP1 POP SWAP3 SWAP2 POP POP JUMP JUMPDEST PUSH1 0x0 PUSH2 0x628 DUP3 PUSH2 0x3D9 JUMP JUMPDEST SWAP2 POP PUSH2 0x633 DUP4 PUSH2 0x3D9 JUMP JUMPDEST SWAP3 POP DUP2 PUSH32 0xFFFFFFFFFFFFFFFFFFFFFFFFFFFFFFFFFFFFFFFFFFFFFFFFFFFFFFFFFFFFFFFF DIV DUP4 GT DUP3 ISZERO ISZERO AND ISZERO PUSH2 0x66C JUMPI PUSH2 0x66B PUSH2 0x54F JUMP JUMPDEST JUMPDEST DUP3 DUP3 MUL SWAP1 POP SWAP3 SWAP2 POP POP JUMP JUMPDEST PUSH32 0x4E487B7100000000000000000000000000000000000000000000000000000000 PUSH1 0x0 MSTORE PUSH1 0x12 PUSH1 0x4 MSTORE PUSH1 0x24 PUSH1 0x0 REVERT JUMPDEST PUSH1 0x0 PUSH2 0x6B1 DUP3 PUSH2 0x3D9 JUMP JUMPDEST SWAP2 POP PUSH2 0x6BC DUP4 PUSH2 0x3D9 JUMP JUMPDEST SWAP3 POP DUP3 PUSH2 0x6CC JUMPI PUSH2 0x6CB PUSH2 0x677 JUMP JUMPDEST JUMPDEST DUP3 DUP3 DIV SWAP1 POP SWAP3 SWAP2 POP POP JUMP JUMPDEST PUSH1 0x0 PUSH10 0xFFFFFFFFFFFFFFFFFFFF DUP3 AND SWAP1 POP SWAP2 SWAP1 POP JUMP JUMPDEST PUSH2 0x6F6 DUP2 PUSH2 0x6D7 JUMP JUMPDEST DUP2 EQ PUSH2 0x701 JUMPI PUSH1 0x0 DUP1 REVERT JUMPDEST POP JUMP JUMPDEST PUSH1 0x0 DUP2 MLOAD SWAP1 POP PUSH2 0x713 DUP2 PUSH2 0x6ED JUMP JUMPDEST SWAP3 SWAP2 POP POP JUMP JUMPDEST PUSH1 0x0 DUP2 SWAP1 POP SWAP2 SWAP1 POP JUMP JUMPDEST PUSH2 0x72C DUP2 PUSH2 0x719 JUMP JUMPDEST DUP2 EQ PUSH2 0x737 JUMPI PUSH1 0x0 DUP1 REVERT JUMPDEST POP JUMP JUMPDEST PUSH1 0x0 DUP2 MLOAD SWAP1 POP PUSH2 0x749 DUP2 PUSH2 0x723 JUMP JUMPDEST SWAP3 SWAP2 POP POP JUMP JUMPDEST PUSH1 0x0 DUP2 MLOAD SWAP1 POP PUSH2 0x75E DUP2 PUSH2 0x49D JUMP JUMPDEST SWAP3 SWAP2 POP POP JUMP JUMPDEST PUSH1 0x0 DUP1 PUSH1 0x0 DUP1 PUSH1 0x0 PUSH1 0xA0 DUP7 DUP9 SUB SLT ISZERO PUSH2 0x780 JUMPI PUSH2 0x77F PUSH2 0x40D JUMP JUMPDEST JUMPDEST PUSH1 0x0 PUSH2 0x78E DUP9 DUP3 DUP10 ADD PUSH2 0x704 JUMP JUMPDEST SWAP6 POP POP PUSH1 0x20 PUSH2 0x79F DUP9 DUP3 DUP10 ADD PUSH2 0x73A JUMP JUMPDEST SWAP5 POP POP PUSH1 0x40 PUSH2 0x7B0 DUP9 DUP3 DUP10 ADD PUSH2 0x74F JUMP JUMPDEST SWAP4 POP POP PUSH1 0x60 PUSH2 0x7C1 DUP9 DUP3 DUP10 ADD PUSH2 0x74F JUMP JUMPDEST SWAP3 POP POP PUSH1 0x80 PUSH2 0x7D2 DUP9 DUP3 DUP10 ADD PUSH2 0x704 JUMP JUMPDEST SWAP2 POP POP SWAP3 SWAP6 POP SWAP3 SWAP6 SWAP1 SWAP4 POP JUMP JUMPDEST PUSH1 0x0 PUSH2 0x7EA DUP3 PUSH2 0x719 JUMP JUMPDEST SWAP2 POP PUSH2 0x7F5 DUP4 PUSH2 0x719 JUMP JUMPDEST SWAP3 POP DUP3 PUSH32 0x7FFFFFFFFFFFFFFFFFFFFFFFFFFFFFFFFFFFFFFFFFFFFFFFFFFFFFFFFFFFFFFF DIV DUP3 GT PUSH1 0x0 DUP5 SGT PUSH1 0x0 DUP5 SGT AND AND ISZERO PUSH2 0x834 JUMPI PUSH2 0x833 PUSH2 0x54F JUMP JUMPDEST JUMPDEST DUP2 PUSH32 0x8000000000000000000000000000000000000000000000000000000000000000 SDIV DUP4 SLT PUSH1 0x0 DUP5 SLT PUSH1 0x0 DUP5 SGT AND AND ISZERO PUSH2 0x871 JUMPI PUSH2 0x870 PUSH2 0x54F JUMP JUMPDEST JUMPDEST DUP3 PUSH32 0x8000000000000000000000000000000000000000000000000000000000000000 SDIV DUP3 SLT PUSH1 0x0 DUP5 SGT PUSH1 0x0 DUP5 SLT AND AND ISZERO PUSH2 0x8AE JUMPI PUSH2 0x8AD PUSH2 0x54F JUMP JUMPDEST JUMPDEST DUP3 PUSH32 0x7FFFFFFFFFFFFFFFFFFFFFFFFFFFFFFFFFFFFFFFFFFFFFFFFFFFFFFFFFFFFFFF SDIV DUP3 SLT PUSH1 0x0 DUP5 SLT PUSH1 0x0 DUP5 SLT AND AND ISZERO PUSH2 0x8EB JUMPI PUSH2 0x8EA PUSH2 0x54F JUMP JUMPDEST JUMPDEST DUP3 DUP3 MUL SWAP1 POP SWAP3 SWAP2 POP POP JUMP INVALID LOG2 PUSH5 0x6970667358 0x22 SLT KECCAK256 SWAP10 0xAE 0xB0 0xAF DUP16 0xAA SWAP2 0xD8 PUSH18 0x8272618FB1B8B1BB812527680677152C537D DUP5 0x5C 0xF9 0xA9 EXTCODECOPY PUSH5 0x736F6C6343 STOP ADDMOD ADDMOD STOP CALLER "
				},
				"gasEstimates": {
					"creation": {
						"codeDepositCost": "469600",
						"executionCost": "22611",
						"totalCost": "492211"
					},
					"external": {
						"addressToAmountFunded(address)": "2836",
						"fund()": "infinite",
						"funders(uint256)": "5022",
						"minimumUsd()": "2407",
						"withdraw()": "infinite"
					}
				},
				"methodIdentifiers": {
					"addressToAmountFunded(address)": "3e47d6f3",
					"fund()": "b60d4288",
					"funders(uint256)": "dc0d3dff",
					"minimumUsd()": "098de820",
					"withdraw()": "3ccfd60b"
				}
			},
			"storageLayout": {
				"storage": [
					{
						"astId": 122,
						"contract": "contracts/fundme.sol:FundMe",
						"label": "minimumUsd",
						"offset": 0,
						"slot": "0",
						"type": "t_uint256"
					},
					{
						"astId": 125,
						"contract": "contracts/fundme.sol:FundMe",
						"label": "funders",
						"offset": 0,
						"slot": "1",
						"type": "t_array(t_address)dyn_storage"
					},
					{
						"astId": 129,
						"contract": "contracts/fundme.sol:FundMe",
						"label": "addressToAmountFunded",
						"offset": 0,
						"slot": "2",
						"type": "t_mapping(t_address,t_uint256)"
					}
				],
				"types": {
					"t_address": {
						"encoding": "inplace",
						"label": "address",
						"numberOfBytes": "20"
					},
					"t_array(t_address)dyn_storage": {
						"base": "t_address",
						"encoding": "dynamic_array",
						"label": "address[]",
						"numberOfBytes": "32"
					},
					"t_mapping(t_address,t_uint256)": {
						"encoding": "mapping",
						"key": "t_address",
						"label": "mapping(address => uint256)",
						"numberOfBytes": "32",
						"value": "t_uint256"
					},
					"t_uint256": {
						"encoding": "inplace",
						"label": "uint256",
						"numberOfBytes": "32"
					}
				}
			},
			"userdoc": {
				"kind": "user",
				"methods": {},
				"version": 1
			}
		}
	}
}